{"contracts/core/ProofAccess.sol":{"ProofAccess":{"abi":[{"inputs":[{"internalType":"address","name":"admin","type":"address"}],"stateMutability":"nonpayable","type":"constructor"},{"inputs":[],"name":"AccessControlBadConfirmation","type":"error"},{"inputs":[{"internalType":"address","name":"account","type":"address"},{"internalType":"bytes32","name":"neededRole","type":"bytes32"}],"name":"AccessControlUnauthorizedAccount","type":"error"},{"anonymous":false,"inputs":[{"indexed":true,"internalType":"bytes32","name":"role","type":"bytes32"},{"indexed":true,"internalType":"bytes32","name":"previousAdminRole","type":"bytes32"},{"indexed":true,"internalType":"bytes32","name":"newAdminRole","type":"bytes32"}],"name":"RoleAdminChanged","type":"event"},{"anonymous":false,"inputs":[{"indexed":true,"internalType":"bytes32","name":"role","type":"bytes32"},{"indexed":true,"internalType":"address","name":"account","type":"address"},{"indexed":true,"internalType":"address","name":"sender","type":"address"}],"name":"RoleGranted","type":"event"},{"anonymous":false,"inputs":[{"indexed":true,"internalType":"bytes32","name":"role","type":"bytes32"},{"indexed":true,"internalType":"address","name":"account","type":"address"},{"indexed":true,"internalType":"address","name":"sender","type":"address"}],"name":"RoleRevoked","type":"event"},{"inputs":[],"name":"ADMIN_ROLE","outputs":[{"internalType":"bytes32","name":"","type":"bytes32"}],"stateMutability":"view","type":"function"},{"inputs":[],"name":"DEFAULT_ADMIN_ROLE","outputs":[{"internalType":"bytes32","name":"","type":"bytes32"}],"stateMutability":"view","type":"function"},{"inputs":[],"name":"LANDLORD_ROLE","outputs":[{"internalType":"bytes32","name":"","type":"bytes32"}],"stateMutability":"view","type":"function"},{"inputs":[],"name":"SYSTEM_ROLE","outputs":[{"internalType":"bytes32","name":"","type":"bytes32"}],"stateMutability":"view","type":"function"},{"inputs":[],"name":"TENANT_ROLE","outputs":[{"internalType":"bytes32","name":"","type":"bytes32"}],"stateMutability":"view","type":"function"},{"inputs":[{"internalType":"bytes32","name":"role","type":"bytes32"}],"name":"getRoleAdmin","outputs":[{"internalType":"bytes32","name":"","type":"bytes32"}],"stateMutability":"view","type":"function"},{"inputs":[{"internalType":"address","name":"account","type":"address"}],"name":"grantLandlord","outputs":[],"stateMutability":"nonpayable","type":"function"},{"inputs":[{"internalType":"bytes32","name":"role","type":"bytes32"},{"internalType":"address","name":"account","type":"address"}],"name":"grantRole","outputs":[],"stateMutability":"nonpayable","type":"function"},{"inputs":[{"internalType":"address","name":"account","type":"address"}],"name":"grantSystem","outputs":[],"stateMutability":"nonpayable","type":"function"},{"inputs":[{"internalType":"address","name":"account","type":"address"}],"name":"grantTenant","outputs":[],"stateMutability":"nonpayable","type":"function"},{"inputs":[{"internalType":"bytes32","name":"role","type":"bytes32"},{"internalType":"address","name":"account","type":"address"}],"name":"hasRole","outputs":[{"internalType":"bool","name":"","type":"bool"}],"stateMutability":"view","type":"function"},{"inputs":[{"internalType":"bytes32","name":"role","type":"bytes32"},{"internalType":"address","name":"callerConfirmation","type":"address"}],"name":"renounceRole","outputs":[],"stateMutability":"nonpayable","type":"function"},{"inputs":[{"internalType":"address","name":"account","type":"address"}],"name":"revokeLandlord","outputs":[],"stateMutability":"nonpayable","type":"function"},{"inputs":[{"internalType":"bytes32","name":"role","type":"bytes32"},{"internalType":"address","name":"account","type":"address"}],"name":"revokeRole","outputs":[],"stateMutability":"nonpayable","type":"function"},{"inputs":[{"internalType":"address","name":"account","type":"address"}],"name":"revokeTenant","outputs":[],"stateMutability":"nonpayable","type":"function"},{"inputs":[{"internalType":"bytes4","name":"interfaceId","type":"bytes4"}],"name":"supportsInterface","outputs":[{"internalType":"bool","name":"","type":"bool"}],"stateMutability":"view","type":"function"}],"evm":{"bytecode":{"linkReferences":{},"object":"608060405234801561001057600080fd5b5060405161087038038061087083398101604081905261002f91610118565b61003a60008261006c565b506100657fa49807205ce4d355092ef5a8a18f56e8913cf4a201fbe287825b095693c217758261006c565b5050610148565b6000828152602081815260408083206001600160a01b038516845290915281205460ff1661010e576000838152602081815260408083206001600160a01b03861684529091529020805460ff191660011790556100c63390565b6001600160a01b0316826001600160a01b0316847f2f8788117e7eff1d82e926ec794901d17c78024a50270940304540a733656f0d60405160405180910390a4506001610112565b5060005b92915050565b60006020828403121561012a57600080fd5b81516001600160a01b038116811461014157600080fd5b9392505050565b610719806101576000396000f3fe608060405234801561001057600080fd5b50600436106101005760003560e01c806375b238fc11610097578063a217fddf11610066578063a217fddf1461025c578063c3c38e3d14610264578063d547741f14610277578063eebe4bcc1461028a57600080fd5b806375b238fc146101fa5780637b9da10e1461020f57806391d14854146102225780639875ea2b1461023557600080fd5b806336568abe116100d357806336568abe1461019a57806369f99500146101ad57806371aef6a4146101c057806375071d2a146101d357600080fd5b806301ffc9a714610105578063091115061461012d578063248a9ca3146101625780632f2ff15d14610185575b600080fd5b610118610113366004610616565b61029d565b60405190151581526020015b60405180910390f35b6101547f0c10414aabe9dbfb3c6c498afa77d206e250116264166f38171a712598ea1bfc81565b604051908152602001610124565b610154610170366004610647565b60009081526020819052604090206001015490565b61019861019336600461067c565b6102d4565b005b6101986101a836600461067c565b6102ff565b6101986101bb3660046106a8565b610337565b6101986101ce3660046106a8565b61037d565b6101547f5719df9ef2c4678b547f89e4f5ae410dbf400fc51cf3ded434c55f6adea2c43f81565b6101546000805160206106c483398151915281565b61019861021d3660046106a8565b6103bf565b61011861023036600461067c565b610401565b6101547f183424541d14cd9bd5d5e4d92b46028be6700d27ec9e3ecc10cbe3e71dea50a581565b610154600081565b6101986102723660046106a8565b61042a565b61019861028536600461067c565b610468565b6101986102983660046106a8565b61048d565b60006001600160e01b03198216637965db0b60e01b14806102ce57506301ffc9a760e01b6001600160e01b03198316145b92915050565b6000828152602081905260409020600101546102ef816104cf565b6102f983836104dc565b50505050565b6001600160a01b03811633146103285760405163334bd91960e11b815260040160405180910390fd5b610332828261056e565b505050565b6000805160206106c483398151915261034f816104cf565b6103797f183424541d14cd9bd5d5e4d92b46028be6700d27ec9e3ecc10cbe3e71dea50a5836102d4565b5050565b6000805160206106c4833981519152610395816104cf565b6103797f5719df9ef2c4678b547f89e4f5ae410dbf400fc51cf3ded434c55f6adea2c43f836102d4565b6000805160206106c48339815191526103d7816104cf565b6103797f183424541d14cd9bd5d5e4d92b46028be6700d27ec9e3ecc10cbe3e71dea50a583610468565b6000918252602082815260408084206001600160a01b0393909316845291905290205460ff1690565b6000805160206106c4833981519152610442816104cf565b6103797f0c10414aabe9dbfb3c6c498afa77d206e250116264166f38171a712598ea1bfc835b600082815260208190526040902060010154610483816104cf565b6102f9838361056e565b6000805160206106c48339815191526104a5816104cf565b6103797f0c10414aabe9dbfb3c6c498afa77d206e250116264166f38171a712598ea1bfc836102d4565b6104d981336105d9565b50565b60006104e88383610401565b610566576000838152602081815260408083206001600160a01b03861684529091529020805460ff1916600117905561051e3390565b6001600160a01b0316826001600160a01b0316847f2f8788117e7eff1d82e926ec794901d17c78024a50270940304540a733656f0d60405160405180910390a45060016102ce565b5060006102ce565b600061057a8383610401565b15610566576000838152602081815260408083206001600160a01b0386168085529252808320805460ff1916905551339286917ff6391f5c32d9c69d2a47ea670b442974b53935d1edc7fd64eb21e047a839171b9190a45060016102ce565b6105e38282610401565b6103795760405163e2517d3f60e01b81526001600160a01b03821660048201526024810183905260440160405180910390fd5b60006020828403121561062857600080fd5b81356001600160e01b03198116811461064057600080fd5b9392505050565b60006020828403121561065957600080fd5b5035919050565b80356001600160a01b038116811461067757600080fd5b919050565b6000806040838503121561068f57600080fd5b8235915061069f60208401610660565b90509250929050565b6000602082840312156106ba57600080fd5b6106408261066056fea49807205ce4d355092ef5a8a18f56e8913cf4a201fbe287825b095693c21775a264697066735822122026d181b601f18d30cb837ba60403f48c6a27edcbfe3c25496fb57483e317ddd964736f6c63430008140033","opcodes":"PUSH1 0x80 PUSH1 0x40 MSTORE CALLVALUE DUP1 ISZERO PUSH2 0x10 JUMPI PUSH1 0x0 DUP1 REVERT JUMPDEST POP PUSH1 0x40 MLOAD PUSH2 0x870 CODESIZE SUB DUP1 PUSH2 0x870 DUP4 CODECOPY DUP2 ADD PUSH1 0x40 DUP2 SWAP1 MSTORE PUSH2 0x2F SWAP2 PUSH2 0x118 JUMP JUMPDEST PUSH2 0x3A PUSH1 0x0 DUP3 PUSH2 0x6C JUMP JUMPDEST POP PUSH2 0x65 PUSH32 0xA49807205CE4D355092EF5A8A18F56E8913CF4A201FBE287825B095693C21775 DUP3 PUSH2 0x6C JUMP JUMPDEST POP POP PUSH2 0x148 JUMP JUMPDEST PUSH1 0x0 DUP3 DUP2 MSTORE PUSH1 0x20 DUP2 DUP2 MSTORE PUSH1 0x40 DUP1 DUP4 KECCAK256 PUSH1 0x1 PUSH1 0x1 PUSH1 0xA0 SHL SUB DUP6 AND DUP5 MSTORE SWAP1 SWAP2 MSTORE DUP2 KECCAK256 SLOAD PUSH1 0xFF AND PUSH2 0x10E JUMPI PUSH1 0x0 DUP4 DUP2 MSTORE PUSH1 0x20 DUP2 DUP2 MSTORE PUSH1 0x40 DUP1 DUP4 KECCAK256 PUSH1 0x1 PUSH1 0x1 PUSH1 0xA0 SHL SUB DUP7 AND DUP5 MSTORE SWAP1 SWAP2 MSTORE SWAP1 KECCAK256 DUP1 SLOAD PUSH1 0xFF NOT AND PUSH1 0x1 OR SWAP1 SSTORE PUSH2 0xC6 CALLER SWAP1 JUMP JUMPDEST PUSH1 0x1 PUSH1 0x1 PUSH1 0xA0 SHL SUB AND DUP3 PUSH1 0x1 PUSH1 0x1 PUSH1 0xA0 SHL SUB AND DUP5 PUSH32 0x2F8788117E7EFF1D82E926EC794901D17C78024A50270940304540A733656F0D PUSH1 0x40 MLOAD PUSH1 0x40 MLOAD DUP1 SWAP2 SUB SWAP1 LOG4 POP PUSH1 0x1 PUSH2 0x112 JUMP JUMPDEST POP PUSH1 0x0 JUMPDEST SWAP3 SWAP2 POP POP JUMP JUMPDEST PUSH1 0x0 PUSH1 0x20 DUP3 DUP5 SUB SLT ISZERO PUSH2 0x12A JUMPI PUSH1 0x0 DUP1 REVERT JUMPDEST DUP2 MLOAD PUSH1 0x1 PUSH1 0x1 PUSH1 0xA0 SHL SUB DUP2 AND DUP2 EQ PUSH2 0x141 JUMPI PUSH1 0x0 DUP1 REVERT JUMPDEST SWAP4 SWAP3 POP POP POP JUMP JUMPDEST PUSH2 0x719 DUP1 PUSH2 0x157 PUSH1 0x0 CODECOPY PUSH1 0x0 RETURN INVALID PUSH1 0x80 PUSH1 0x40 MSTORE CALLVALUE DUP1 ISZERO PUSH2 0x10 JUMPI PUSH1 0x0 DUP1 REVERT JUMPDEST POP PUSH1 0x4 CALLDATASIZE LT PUSH2 0x100 JUMPI PUSH1 0x0 CALLDATALOAD PUSH1 0xE0 SHR DUP1 PUSH4 0x75B238FC GT PUSH2 0x97 JUMPI DUP1 PUSH4 0xA217FDDF GT PUSH2 0x66 JUMPI DUP1 PUSH4 0xA217FDDF EQ PUSH2 0x25C JUMPI DUP1 PUSH4 0xC3C38E3D EQ PUSH2 0x264 JUMPI DUP1 PUSH4 0xD547741F EQ PUSH2 0x277 JUMPI DUP1 PUSH4 0xEEBE4BCC EQ PUSH2 0x28A JUMPI PUSH1 0x0 DUP1 REVERT JUMPDEST DUP1 PUSH4 0x75B238FC EQ PUSH2 0x1FA JUMPI DUP1 PUSH4 0x7B9DA10E EQ PUSH2 0x20F JUMPI DUP1 PUSH4 0x91D14854 EQ PUSH2 0x222 JUMPI DUP1 PUSH4 0x9875EA2B EQ PUSH2 0x235 JUMPI PUSH1 0x0 DUP1 REVERT JUMPDEST DUP1 PUSH4 0x36568ABE GT PUSH2 0xD3 JUMPI DUP1 PUSH4 0x36568ABE EQ PUSH2 0x19A JUMPI DUP1 PUSH4 0x69F99500 EQ PUSH2 0x1AD JUMPI DUP1 PUSH4 0x71AEF6A4 EQ PUSH2 0x1C0 JUMPI DUP1 PUSH4 0x75071D2A EQ PUSH2 0x1D3 JUMPI PUSH1 0x0 DUP1 REVERT JUMPDEST DUP1 PUSH4 0x1FFC9A7 EQ PUSH2 0x105 JUMPI DUP1 PUSH4 0x9111506 EQ PUSH2 0x12D JUMPI DUP1 PUSH4 0x248A9CA3 EQ PUSH2 0x162 JUMPI DUP1 PUSH4 0x2F2FF15D EQ PUSH2 0x185 JUMPI JUMPDEST PUSH1 0x0 DUP1 REVERT JUMPDEST PUSH2 0x118 PUSH2 0x113 CALLDATASIZE PUSH1 0x4 PUSH2 0x616 JUMP JUMPDEST PUSH2 0x29D JUMP JUMPDEST PUSH1 0x40 MLOAD SWAP1 ISZERO ISZERO DUP2 MSTORE PUSH1 0x20 ADD JUMPDEST PUSH1 0x40 MLOAD DUP1 SWAP2 SUB SWAP1 RETURN JUMPDEST PUSH2 0x154 PUSH32 0xC10414AABE9DBFB3C6C498AFA77D206E250116264166F38171A712598EA1BFC DUP2 JUMP JUMPDEST PUSH1 0x40 MLOAD SWAP1 DUP2 MSTORE PUSH1 0x20 ADD PUSH2 0x124 JUMP JUMPDEST PUSH2 0x154 PUSH2 0x170 CALLDATASIZE PUSH1 0x4 PUSH2 0x647 JUMP JUMPDEST PUSH1 0x0 SWAP1 DUP2 MSTORE PUSH1 0x20 DUP2 SWAP1 MSTORE PUSH1 0x40 SWAP1 KECCAK256 PUSH1 0x1 ADD SLOAD SWAP1 JUMP JUMPDEST PUSH2 0x198 PUSH2 0x193 CALLDATASIZE PUSH1 0x4 PUSH2 0x67C JUMP JUMPDEST PUSH2 0x2D4 JUMP JUMPDEST STOP JUMPDEST PUSH2 0x198 PUSH2 0x1A8 CALLDATASIZE PUSH1 0x4 PUSH2 0x67C JUMP JUMPDEST PUSH2 0x2FF JUMP JUMPDEST PUSH2 0x198 PUSH2 0x1BB CALLDATASIZE PUSH1 0x4 PUSH2 0x6A8 JUMP JUMPDEST PUSH2 0x337 JUMP JUMPDEST PUSH2 0x198 PUSH2 0x1CE CALLDATASIZE PUSH1 0x4 PUSH2 0x6A8 JUMP JUMPDEST PUSH2 0x37D JUMP JUMPDEST PUSH2 0x154 PUSH32 0x5719DF9EF2C4678B547F89E4F5AE410DBF400FC51CF3DED434C55F6ADEA2C43F DUP2 JUMP JUMPDEST PUSH2 0x154 PUSH1 0x0 DUP1 MLOAD PUSH1 0x20 PUSH2 0x6C4 DUP4 CODECOPY DUP2 MLOAD SWAP2 MSTORE DUP2 JUMP JUMPDEST PUSH2 0x198 PUSH2 0x21D CALLDATASIZE PUSH1 0x4 PUSH2 0x6A8 JUMP JUMPDEST PUSH2 0x3BF JUMP JUMPDEST PUSH2 0x118 PUSH2 0x230 CALLDATASIZE PUSH1 0x4 PUSH2 0x67C JUMP JUMPDEST PUSH2 0x401 JUMP JUMPDEST PUSH2 0x154 PUSH32 0x183424541D14CD9BD5D5E4D92B46028BE6700D27EC9E3ECC10CBE3E71DEA50A5 DUP2 JUMP JUMPDEST PUSH2 0x154 PUSH1 0x0 DUP2 JUMP JUMPDEST PUSH2 0x198 PUSH2 0x272 CALLDATASIZE PUSH1 0x4 PUSH2 0x6A8 JUMP JUMPDEST PUSH2 0x42A JUMP JUMPDEST PUSH2 0x198 PUSH2 0x285 CALLDATASIZE PUSH1 0x4 PUSH2 0x67C JUMP JUMPDEST PUSH2 0x468 JUMP JUMPDEST PUSH2 0x198 PUSH2 0x298 CALLDATASIZE PUSH1 0x4 PUSH2 0x6A8 JUMP JUMPDEST PUSH2 0x48D JUMP JUMPDEST PUSH1 0x0 PUSH1 0x1 PUSH1 0x1 PUSH1 0xE0 SHL SUB NOT DUP3 AND PUSH4 0x7965DB0B PUSH1 0xE0 SHL EQ DUP1 PUSH2 0x2CE JUMPI POP PUSH4 0x1FFC9A7 PUSH1 0xE0 SHL PUSH1 0x1 PUSH1 0x1 PUSH1 0xE0 SHL SUB NOT DUP4 AND EQ JUMPDEST SWAP3 SWAP2 POP POP JUMP JUMPDEST PUSH1 0x0 DUP3 DUP2 MSTORE PUSH1 0x20 DUP2 SWAP1 MSTORE PUSH1 0x40 SWAP1 KECCAK256 PUSH1 0x1 ADD SLOAD PUSH2 0x2EF DUP2 PUSH2 0x4CF JUMP JUMPDEST PUSH2 0x2F9 DUP4 DUP4 PUSH2 0x4DC JUMP JUMPDEST POP POP POP POP JUMP JUMPDEST PUSH1 0x1 PUSH1 0x1 PUSH1 0xA0 SHL SUB DUP2 AND CALLER EQ PUSH2 0x328 JUMPI PUSH1 0x40 MLOAD PUSH4 0x334BD919 PUSH1 0xE1 SHL DUP2 MSTORE PUSH1 0x4 ADD PUSH1 0x40 MLOAD DUP1 SWAP2 SUB SWAP1 REVERT JUMPDEST PUSH2 0x332 DUP3 DUP3 PUSH2 0x56E JUMP JUMPDEST POP POP POP JUMP JUMPDEST PUSH1 0x0 DUP1 MLOAD PUSH1 0x20 PUSH2 0x6C4 DUP4 CODECOPY DUP2 MLOAD SWAP2 MSTORE PUSH2 0x34F DUP2 PUSH2 0x4CF JUMP JUMPDEST PUSH2 0x379 PUSH32 0x183424541D14CD9BD5D5E4D92B46028BE6700D27EC9E3ECC10CBE3E71DEA50A5 DUP4 PUSH2 0x2D4 JUMP JUMPDEST POP POP JUMP JUMPDEST PUSH1 0x0 DUP1 MLOAD PUSH1 0x20 PUSH2 0x6C4 DUP4 CODECOPY DUP2 MLOAD SWAP2 MSTORE PUSH2 0x395 DUP2 PUSH2 0x4CF JUMP JUMPDEST PUSH2 0x379 PUSH32 0x5719DF9EF2C4678B547F89E4F5AE410DBF400FC51CF3DED434C55F6ADEA2C43F DUP4 PUSH2 0x2D4 JUMP JUMPDEST PUSH1 0x0 DUP1 MLOAD PUSH1 0x20 PUSH2 0x6C4 DUP4 CODECOPY DUP2 MLOAD SWAP2 MSTORE PUSH2 0x3D7 DUP2 PUSH2 0x4CF JUMP JUMPDEST PUSH2 0x379 PUSH32 0x183424541D14CD9BD5D5E4D92B46028BE6700D27EC9E3ECC10CBE3E71DEA50A5 DUP4 PUSH2 0x468 JUMP JUMPDEST PUSH1 0x0 SWAP2 DUP3 MSTORE PUSH1 0x20 DUP3 DUP2 MSTORE PUSH1 0x40 DUP1 DUP5 KECCAK256 PUSH1 0x1 PUSH1 0x1 PUSH1 0xA0 SHL SUB SWAP4 SWAP1 SWAP4 AND DUP5 MSTORE SWAP2 SWAP1 MSTORE SWAP1 KECCAK256 SLOAD PUSH1 0xFF AND SWAP1 JUMP JUMPDEST PUSH1 0x0 DUP1 MLOAD PUSH1 0x20 PUSH2 0x6C4 DUP4 CODECOPY DUP2 MLOAD SWAP2 MSTORE PUSH2 0x442 DUP2 PUSH2 0x4CF JUMP JUMPDEST PUSH2 0x379 PUSH32 0xC10414AABE9DBFB3C6C498AFA77D206E250116264166F38171A712598EA1BFC DUP4 JUMPDEST PUSH1 0x0 DUP3 DUP2 MSTORE PUSH1 0x20 DUP2 SWAP1 MSTORE PUSH1 0x40 SWAP1 KECCAK256 PUSH1 0x1 ADD SLOAD PUSH2 0x483 DUP2 PUSH2 0x4CF JUMP JUMPDEST PUSH2 0x2F9 DUP4 DUP4 PUSH2 0x56E JUMP JUMPDEST PUSH1 0x0 DUP1 MLOAD PUSH1 0x20 PUSH2 0x6C4 DUP4 CODECOPY DUP2 MLOAD SWAP2 MSTORE PUSH2 0x4A5 DUP2 PUSH2 0x4CF JUMP JUMPDEST PUSH2 0x379 PUSH32 0xC10414AABE9DBFB3C6C498AFA77D206E250116264166F38171A712598EA1BFC DUP4 PUSH2 0x2D4 JUMP JUMPDEST PUSH2 0x4D9 DUP2 CALLER PUSH2 0x5D9 JUMP JUMPDEST POP JUMP JUMPDEST PUSH1 0x0 PUSH2 0x4E8 DUP4 DUP4 PUSH2 0x401 JUMP JUMPDEST PUSH2 0x566 JUMPI PUSH1 0x0 DUP4 DUP2 MSTORE PUSH1 0x20 DUP2 DUP2 MSTORE PUSH1 0x40 DUP1 DUP4 KECCAK256 PUSH1 0x1 PUSH1 0x1 PUSH1 0xA0 SHL SUB DUP7 AND DUP5 MSTORE SWAP1 SWAP2 MSTORE SWAP1 KECCAK256 DUP1 SLOAD PUSH1 0xFF NOT AND PUSH1 0x1 OR SWAP1 SSTORE PUSH2 0x51E CALLER SWAP1 JUMP JUMPDEST PUSH1 0x1 PUSH1 0x1 PUSH1 0xA0 SHL SUB AND DUP3 PUSH1 0x1 PUSH1 0x1 PUSH1 0xA0 SHL SUB AND DUP5 PUSH32 0x2F8788117E7EFF1D82E926EC794901D17C78024A50270940304540A733656F0D PUSH1 0x40 MLOAD PUSH1 0x40 MLOAD DUP1 SWAP2 SUB SWAP1 LOG4 POP PUSH1 0x1 PUSH2 0x2CE JUMP JUMPDEST POP PUSH1 0x0 PUSH2 0x2CE JUMP JUMPDEST PUSH1 0x0 PUSH2 0x57A DUP4 DUP4 PUSH2 0x401 JUMP JUMPDEST ISZERO PUSH2 0x566 JUMPI PUSH1 0x0 DUP4 DUP2 MSTORE PUSH1 0x20 DUP2 DUP2 MSTORE PUSH1 0x40 DUP1 DUP4 KECCAK256 PUSH1 0x1 PUSH1 0x1 PUSH1 0xA0 SHL SUB DUP7 AND DUP1 DUP6 MSTORE SWAP3 MSTORE DUP1 DUP4 KECCAK256 DUP1 SLOAD PUSH1 0xFF NOT AND SWAP1 SSTORE MLOAD CALLER SWAP3 DUP7 SWAP2 PUSH32 0xF6391F5C32D9C69D2A47EA670B442974B53935D1EDC7FD64EB21E047A839171B SWAP2 SWAP1 LOG4 POP PUSH1 0x1 PUSH2 0x2CE JUMP JUMPDEST PUSH2 0x5E3 DUP3 DUP3 PUSH2 0x401 JUMP JUMPDEST PUSH2 0x379 JUMPI PUSH1 0x40 MLOAD PUSH4 0xE2517D3F PUSH1 0xE0 SHL DUP2 MSTORE PUSH1 0x1 PUSH1 0x1 PUSH1 0xA0 SHL SUB DUP3 AND PUSH1 0x4 DUP3 ADD MSTORE PUSH1 0x24 DUP2 ADD DUP4 SWAP1 MSTORE PUSH1 0x44 ADD PUSH1 0x40 MLOAD DUP1 SWAP2 SUB SWAP1 REVERT JUMPDEST PUSH1 0x0 PUSH1 0x20 DUP3 DUP5 SUB SLT ISZERO PUSH2 0x628 JUMPI PUSH1 0x0 DUP1 REVERT JUMPDEST DUP2 CALLDATALOAD PUSH1 0x1 PUSH1 0x1 PUSH1 0xE0 SHL SUB NOT DUP2 AND DUP2 EQ PUSH2 0x640 JUMPI PUSH1 0x0 DUP1 REVERT JUMPDEST SWAP4 SWAP3 POP POP POP JUMP JUMPDEST PUSH1 0x0 PUSH1 0x20 DUP3 DUP5 SUB SLT ISZERO PUSH2 0x659 JUMPI PUSH1 0x0 DUP1 REVERT JUMPDEST POP CALLDATALOAD SWAP2 SWAP1 POP JUMP JUMPDEST DUP1 CALLDATALOAD PUSH1 0x1 PUSH1 0x1 PUSH1 0xA0 SHL SUB DUP2 AND DUP2 EQ PUSH2 0x677 JUMPI PUSH1 0x0 DUP1 REVERT JUMPDEST SWAP2 SWAP1 POP JUMP JUMPDEST PUSH1 0x0 DUP1 PUSH1 0x40 DUP4 DUP6 SUB SLT ISZERO PUSH2 0x68F JUMPI PUSH1 0x0 DUP1 REVERT JUMPDEST DUP3 CALLDATALOAD SWAP2 POP PUSH2 0x69F PUSH1 0x20 DUP5 ADD PUSH2 0x660 JUMP JUMPDEST SWAP1 POP SWAP3 POP SWAP3 SWAP1 POP JUMP JUMPDEST PUSH1 0x0 PUSH1 0x20 DUP3 DUP5 SUB SLT ISZERO PUSH2 0x6BA JUMPI PUSH1 0x0 DUP1 REVERT JUMPDEST PUSH2 0x640 DUP3 PUSH2 0x660 JUMP INVALID LOG4 SWAP9 SMOD KECCAK256 0x5C 0xE4 0xD3 SSTORE MULMOD 0x2E CREATE2 0xA8 LOG1 DUP16 JUMP 0xE8 SWAP2 EXTCODECOPY DELEGATECALL LOG2 ADD 0xFB 0xE2 DUP8 DUP3 JUMPDEST MULMOD JUMP SWAP4 0xC2 OR PUSH22 0xA264697066735822122026D181B601F18D30CB837BA6 DIV SUB DELEGATECALL DUP13 PUSH11 0x27EDCBFE3C25496FB57483 0xE3 OR 0xDD 0xD9 PUSH5 0x736F6C6343 STOP ADDMOD EQ STOP CALLER "},"methodIdentifiers":{"ADMIN_ROLE()":"75b238fc","DEFAULT_ADMIN_ROLE()":"a217fddf","LANDLORD_ROLE()":"09111506","SYSTEM_ROLE()":"75071d2a","TENANT_ROLE()":"9875ea2b","getRoleAdmin(bytes32)":"248a9ca3","grantLandlord(address)":"eebe4bcc","grantRole(bytes32,address)":"2f2ff15d","grantSystem(address)":"71aef6a4","grantTenant(address)":"69f99500","hasRole(bytes32,address)":"91d14854","renounceRole(bytes32,address)":"36568abe","revokeLandlord(address)":"c3c38e3d","revokeRole(bytes32,address)":"d547741f","revokeTenant(address)":"7b9da10e","supportsInterface(bytes4)":"01ffc9a7"}}}}}