{"contracts/core/DepositVault.sol":{"DepositVault":{"abi":[{"inputs":[],"stateMutability":"nonpayable","type":"constructor"},{"inputs":[{"internalType":"address","name":"owner","type":"address"}],"name":"OwnableInvalidOwner","type":"error"},{"inputs":[{"internalType":"address","name":"account","type":"address"}],"name":"OwnableUnauthorizedAccount","type":"error"},{"anonymous":false,"inputs":[{"indexed":true,"internalType":"uint256","name":"tokenId","type":"uint256"},{"indexed":false,"internalType":"uint256","name":"amount","type":"uint256"},{"indexed":false,"internalType":"address","name":"tenant","type":"address"}],"name":"DepositAdded","type":"event"},{"anonymous":false,"inputs":[{"indexed":true,"internalType":"uint256","name":"tokenId","type":"uint256"},{"indexed":false,"internalType":"uint256","name":"amount","type":"uint256"},{"indexed":false,"internalType":"address","name":"tenant","type":"address"}],"name":"DepositReleased","type":"event"},{"anonymous":false,"inputs":[{"indexed":true,"internalType":"address","name":"previousOwner","type":"address"},{"indexed":true,"internalType":"address","name":"newOwner","type":"address"}],"name":"OwnershipTransferred","type":"event"},{"inputs":[{"internalType":"address","name":"proofInAddress","type":"address"}],"name":"authorizeProofIn","outputs":[],"stateMutability":"nonpayable","type":"function"},{"inputs":[{"internalType":"uint256","name":"tokenId","type":"uint256"},{"internalType":"address","name":"tenant","type":"address"},{"internalType":"address","name":"landlord","type":"address"}],"name":"deposit","outputs":[],"stateMutability":"payable","type":"function"},{"inputs":[{"internalType":"uint256","name":"","type":"uint256"}],"name":"deposits","outputs":[{"internalType":"uint256","name":"amount","type":"uint256"},{"internalType":"bool","name":"released","type":"bool"},{"internalType":"address","name":"tenant","type":"address"},{"internalType":"address","name":"landlord","type":"address"}],"stateMutability":"view","type":"function"},{"inputs":[{"internalType":"uint256","name":"tokenId","type":"uint256"}],"name":"getDepositInfo","outputs":[{"components":[{"internalType":"uint256","name":"amount","type":"uint256"},{"internalType":"bool","name":"released","type":"bool"},{"internalType":"address","name":"tenant","type":"address"},{"internalType":"address","name":"landlord","type":"address"}],"internalType":"struct DepositVault.DepositInfo","name":"","type":"tuple"}],"stateMutability":"view","type":"function"},{"inputs":[],"name":"owner","outputs":[{"internalType":"address","name":"","type":"address"}],"stateMutability":"view","type":"function"},{"inputs":[{"internalType":"uint256","name":"tokenId","type":"uint256"}],"name":"releaseDeposit","outputs":[],"stateMutability":"nonpayable","type":"function"},{"inputs":[],"name":"renounceOwnership","outputs":[],"stateMutability":"nonpayable","type":"function"},{"inputs":[{"internalType":"address","name":"newOwner","type":"address"}],"name":"transferOwnership","outputs":[],"stateMutability":"nonpayable","type":"function"}],"evm":{"bytecode":{"linkReferences":{},"object":"608060405234801561001057600080fd5b50338061003757604051631e4fbdf760e01b81526000600482015260240160405180910390fd5b61004081610046565b50610096565b600080546001600160a01b038381166001600160a01b0319831681178455604051919092169283917f8be0079c531659141344cd1fd0a4f28419497f9722a3daafe3b4186f6b6457e09190a35050565b610745806100a56000396000f3fe60806040526004361061007b5760003560e01c80638da5cb5b1161004e5780638da5cb5b146101a7578063a0f109c5146101cf578063b02c43d0146101ef578063f2fde38b1461027057600080fd5b80632e2d2984146100805780635328c2bf146100955780635512351e14610172578063715018a614610192575b600080fd5b61009361008e366004610698565b610290565b005b3480156100a157600080fd5b5061012b6100b03660046106d4565b604080516080810182526000808252602082018190529181018290526060810191909152506000908152600160208181526040928390208351608081018552815481529281015460ff81161515928401929092526101009091046001600160a01b039081169383019390935260020154909116606082015290565b6040805182518152602080840151151590820152828201516001600160a01b0390811692820192909252606092830151909116918101919091526080015b60405180910390f35b34801561017e57600080fd5b5061009361018d3660046106ed565b61045e565b34801561019e57600080fd5b50610093610472565b3480156101b357600080fd5b506000546040516001600160a01b039091168152602001610169565b3480156101db57600080fd5b506100936101ea3660046106d4565b610486565b3480156101fb57600080fd5b5061024161020a3660046106d4565b600160208190526000918252604090912080549181015460029091015460ff8216916001600160a01b036101009091048116911684565b6040805194855292151560208501526001600160a01b0391821692840192909252166060820152608001610169565b34801561027c57600080fd5b5061009361028b3660046106ed565b6105c4565b600034116102e55760405162461bcd60e51b815260206004820152601e60248201527f4465706f736974206d7573742062652067726561746572207468616e2030000060448201526064015b60405180910390fd5b6000838152600160205260409020541561033a5760405162461bcd60e51b81526020600482015260166024820152754465706f73697420616c72656164792065786973747360501b60448201526064016102dc565b6001600160a01b0382166103895760405162461bcd60e51b8152602060048201526016602482015275496e76616c69642074656e616e74206164647265737360501b60448201526064016102dc565b6040805160808101825234808252600060208084018281526001600160a01b03888116868801818152898316606089019081528c87526001808752968a9020985189559351958801805491516001600160a81b0319909216961515610100600160a81b0319169690961761010091841691909102179094559051600290950180546001600160a01b031916959091169490941790935583519182529181019190915284917fd3bed23c3dcd8281dc4d066db4dcab982477b389583679f17c2492b1b8001d7d91015b60405180910390a2505050565b6104666105ff565b61046f816105c4565b50565b61047a6105ff565b610484600061062c565b565b61048e6105ff565b600081815260016020526040902080546104de5760405162461bcd60e51b8152602060048201526011602482015270139bc819195c1bdcda5d081cdd1bdc9959607a1b60448201526064016102dc565b600181015460ff16156105265760405162461bcd60e51b815260206004820152601060248201526f105b1c9958591e481c995b19585cd95960821b60448201526064016102dc565b80546001808301805460ff19169091179081905560008084556040516101009092046001600160a01b0316916108fc84150291849190818181858888f19350505050158015610579573d6000803e3d6000fd5b506001820154604080518381526101009092046001600160a01b0316602083015284917f846df1dbce22cac5e1c873b7785204e7586ac0be75d9f1b560afb04649d1091c9101610451565b6105cc6105ff565b6001600160a01b0381166105f657604051631e4fbdf760e01b8152600060048201526024016102dc565b61046f8161062c565b6000546001600160a01b031633146104845760405163118cdaa760e01b81523360048201526024016102dc565b600080546001600160a01b038381166001600160a01b0319831681178455604051919092169283917f8be0079c531659141344cd1fd0a4f28419497f9722a3daafe3b4186f6b6457e09190a35050565b80356001600160a01b038116811461069357600080fd5b919050565b6000806000606084860312156106ad57600080fd5b833592506106bd6020850161067c565b91506106cb6040850161067c565b90509250925092565b6000602082840312156106e657600080fd5b5035919050565b6000602082840312156106ff57600080fd5b6107088261067c565b939250505056fea26469706673582212208e8ede853b69ba0bc28518134a3c98079ed1a64f7ca5b31019d226471ca5e17164736f6c63430008140033","opcodes":"PUSH1 0x80 PUSH1 0x40 MSTORE CALLVALUE DUP1 ISZERO PUSH2 0x10 JUMPI PUSH1 0x0 DUP1 REVERT JUMPDEST POP CALLER DUP1 PUSH2 0x37 JUMPI PUSH1 0x40 MLOAD PUSH4 0x1E4FBDF7 PUSH1 0xE0 SHL DUP2 MSTORE PUSH1 0x0 PUSH1 0x4 DUP3 ADD MSTORE PUSH1 0x24 ADD PUSH1 0x40 MLOAD DUP1 SWAP2 SUB SWAP1 REVERT JUMPDEST PUSH2 0x40 DUP2 PUSH2 0x46 JUMP JUMPDEST POP PUSH2 0x96 JUMP JUMPDEST PUSH1 0x0 DUP1 SLOAD PUSH1 0x1 PUSH1 0x1 PUSH1 0xA0 SHL SUB DUP4 DUP2 AND PUSH1 0x1 PUSH1 0x1 PUSH1 0xA0 SHL SUB NOT DUP4 AND DUP2 OR DUP5 SSTORE PUSH1 0x40 MLOAD SWAP2 SWAP1 SWAP3 AND SWAP3 DUP4 SWAP2 PUSH32 0x8BE0079C531659141344CD1FD0A4F28419497F9722A3DAAFE3B4186F6B6457E0 SWAP2 SWAP1 LOG3 POP POP JUMP JUMPDEST PUSH2 0x745 DUP1 PUSH2 0xA5 PUSH1 0x0 CODECOPY PUSH1 0x0 RETURN INVALID PUSH1 0x80 PUSH1 0x40 MSTORE PUSH1 0x4 CALLDATASIZE LT PUSH2 0x7B JUMPI PUSH1 0x0 CALLDATALOAD PUSH1 0xE0 SHR DUP1 PUSH4 0x8DA5CB5B GT PUSH2 0x4E JUMPI DUP1 PUSH4 0x8DA5CB5B EQ PUSH2 0x1A7 JUMPI DUP1 PUSH4 0xA0F109C5 EQ PUSH2 0x1CF JUMPI DUP1 PUSH4 0xB02C43D0 EQ PUSH2 0x1EF JUMPI DUP1 PUSH4 0xF2FDE38B EQ PUSH2 0x270 JUMPI PUSH1 0x0 DUP1 REVERT JUMPDEST DUP1 PUSH4 0x2E2D2984 EQ PUSH2 0x80 JUMPI DUP1 PUSH4 0x5328C2BF EQ PUSH2 0x95 JUMPI DUP1 PUSH4 0x5512351E EQ PUSH2 0x172 JUMPI DUP1 PUSH4 0x715018A6 EQ PUSH2 0x192 JUMPI JUMPDEST PUSH1 0x0 DUP1 REVERT JUMPDEST PUSH2 0x93 PUSH2 0x8E CALLDATASIZE PUSH1 0x4 PUSH2 0x698 JUMP JUMPDEST PUSH2 0x290 JUMP JUMPDEST STOP JUMPDEST CALLVALUE DUP1 ISZERO PUSH2 0xA1 JUMPI PUSH1 0x0 DUP1 REVERT JUMPDEST POP PUSH2 0x12B PUSH2 0xB0 CALLDATASIZE PUSH1 0x4 PUSH2 0x6D4 JUMP JUMPDEST PUSH1 0x40 DUP1 MLOAD PUSH1 0x80 DUP2 ADD DUP3 MSTORE PUSH1 0x0 DUP1 DUP3 MSTORE PUSH1 0x20 DUP3 ADD DUP2 SWAP1 MSTORE SWAP2 DUP2 ADD DUP3 SWAP1 MSTORE PUSH1 0x60 DUP2 ADD SWAP2 SWAP1 SWAP2 MSTORE POP PUSH1 0x0 SWAP1 DUP2 MSTORE PUSH1 0x1 PUSH1 0x20 DUP2 DUP2 MSTORE PUSH1 0x40 SWAP3 DUP4 SWAP1 KECCAK256 DUP4 MLOAD PUSH1 0x80 DUP2 ADD DUP6 MSTORE DUP2 SLOAD DUP2 MSTORE SWAP3 DUP2 ADD SLOAD PUSH1 0xFF DUP2 AND ISZERO ISZERO SWAP3 DUP5 ADD SWAP3 SWAP1 SWAP3 MSTORE PUSH2 0x100 SWAP1 SWAP2 DIV PUSH1 0x1 PUSH1 0x1 PUSH1 0xA0 SHL SUB SWAP1 DUP2 AND SWAP4 DUP4 ADD SWAP4 SWAP1 SWAP4 MSTORE PUSH1 0x2 ADD SLOAD SWAP1 SWAP2 AND PUSH1 0x60 DUP3 ADD MSTORE SWAP1 JUMP JUMPDEST PUSH1 0x40 DUP1 MLOAD DUP3 MLOAD DUP2 MSTORE PUSH1 0x20 DUP1 DUP5 ADD MLOAD ISZERO ISZERO SWAP1 DUP3 ADD MSTORE DUP3 DUP3 ADD MLOAD PUSH1 0x1 PUSH1 0x1 PUSH1 0xA0 SHL SUB SWAP1 DUP2 AND SWAP3 DUP3 ADD SWAP3 SWAP1 SWAP3 MSTORE PUSH1 0x60 SWAP3 DUP4 ADD MLOAD SWAP1 SWAP2 AND SWAP2 DUP2 ADD SWAP2 SWAP1 SWAP2 MSTORE PUSH1 0x80 ADD JUMPDEST PUSH1 0x40 MLOAD DUP1 SWAP2 SUB SWAP1 RETURN JUMPDEST CALLVALUE DUP1 ISZERO PUSH2 0x17E JUMPI PUSH1 0x0 DUP1 REVERT JUMPDEST POP PUSH2 0x93 PUSH2 0x18D CALLDATASIZE PUSH1 0x4 PUSH2 0x6ED JUMP JUMPDEST PUSH2 0x45E JUMP JUMPDEST CALLVALUE DUP1 ISZERO PUSH2 0x19E JUMPI PUSH1 0x0 DUP1 REVERT JUMPDEST POP PUSH2 0x93 PUSH2 0x472 JUMP JUMPDEST CALLVALUE DUP1 ISZERO PUSH2 0x1B3 JUMPI PUSH1 0x0 DUP1 REVERT JUMPDEST POP PUSH1 0x0 SLOAD PUSH1 0x40 MLOAD PUSH1 0x1 PUSH1 0x1 PUSH1 0xA0 SHL SUB SWAP1 SWAP2 AND DUP2 MSTORE PUSH1 0x20 ADD PUSH2 0x169 JUMP JUMPDEST CALLVALUE DUP1 ISZERO PUSH2 0x1DB JUMPI PUSH1 0x0 DUP1 REVERT JUMPDEST POP PUSH2 0x93 PUSH2 0x1EA CALLDATASIZE PUSH1 0x4 PUSH2 0x6D4 JUMP JUMPDEST PUSH2 0x486 JUMP JUMPDEST CALLVALUE DUP1 ISZERO PUSH2 0x1FB JUMPI PUSH1 0x0 DUP1 REVERT JUMPDEST POP PUSH2 0x241 PUSH2 0x20A CALLDATASIZE PUSH1 0x4 PUSH2 0x6D4 JUMP JUMPDEST PUSH1 0x1 PUSH1 0x20 DUP2 SWAP1 MSTORE PUSH1 0x0 SWAP2 DUP3 MSTORE PUSH1 0x40 SWAP1 SWAP2 KECCAK256 DUP1 SLOAD SWAP2 DUP2 ADD SLOAD PUSH1 0x2 SWAP1 SWAP2 ADD SLOAD PUSH1 0xFF DUP3 AND SWAP2 PUSH1 0x1 PUSH1 0x1 PUSH1 0xA0 SHL SUB PUSH2 0x100 SWAP1 SWAP2 DIV DUP2 AND SWAP2 AND DUP5 JUMP JUMPDEST PUSH1 0x40 DUP1 MLOAD SWAP5 DUP6 MSTORE SWAP3 ISZERO ISZERO PUSH1 0x20 DUP6 ADD MSTORE PUSH1 0x1 PUSH1 0x1 PUSH1 0xA0 SHL SUB SWAP2 DUP3 AND SWAP3 DUP5 ADD SWAP3 SWAP1 SWAP3 MSTORE AND PUSH1 0x60 DUP3 ADD MSTORE PUSH1 0x80 ADD PUSH2 0x169 JUMP JUMPDEST CALLVALUE DUP1 ISZERO PUSH2 0x27C JUMPI PUSH1 0x0 DUP1 REVERT JUMPDEST POP PUSH2 0x93 PUSH2 0x28B CALLDATASIZE PUSH1 0x4 PUSH2 0x6ED JUMP JUMPDEST PUSH2 0x5C4 JUMP JUMPDEST PUSH1 0x0 CALLVALUE GT PUSH2 0x2E5 JUMPI PUSH1 0x40 MLOAD PUSH3 0x461BCD PUSH1 0xE5 SHL DUP2 MSTORE PUSH1 0x20 PUSH1 0x4 DUP3 ADD MSTORE PUSH1 0x1E PUSH1 0x24 DUP3 ADD MSTORE PUSH32 0x4465706F736974206D7573742062652067726561746572207468616E20300000 PUSH1 0x44 DUP3 ADD MSTORE PUSH1 0x64 ADD JUMPDEST PUSH1 0x40 MLOAD DUP1 SWAP2 SUB SWAP1 REVERT JUMPDEST PUSH1 0x0 DUP4 DUP2 MSTORE PUSH1 0x1 PUSH1 0x20 MSTORE PUSH1 0x40 SWAP1 KECCAK256 SLOAD ISZERO PUSH2 0x33A JUMPI PUSH1 0x40 MLOAD PUSH3 0x461BCD PUSH1 0xE5 SHL DUP2 MSTORE PUSH1 0x20 PUSH1 0x4 DUP3 ADD MSTORE PUSH1 0x16 PUSH1 0x24 DUP3 ADD MSTORE PUSH22 0x4465706F73697420616C726561647920657869737473 PUSH1 0x50 SHL PUSH1 0x44 DUP3 ADD MSTORE PUSH1 0x64 ADD PUSH2 0x2DC JUMP JUMPDEST PUSH1 0x1 PUSH1 0x1 PUSH1 0xA0 SHL SUB DUP3 AND PUSH2 0x389 JUMPI PUSH1 0x40 MLOAD PUSH3 0x461BCD PUSH1 0xE5 SHL DUP2 MSTORE PUSH1 0x20 PUSH1 0x4 DUP3 ADD MSTORE PUSH1 0x16 PUSH1 0x24 DUP3 ADD MSTORE PUSH22 0x496E76616C69642074656E616E742061646472657373 PUSH1 0x50 SHL PUSH1 0x44 DUP3 ADD MSTORE PUSH1 0x64 ADD PUSH2 0x2DC JUMP JUMPDEST PUSH1 0x40 DUP1 MLOAD PUSH1 0x80 DUP2 ADD DUP3 MSTORE CALLVALUE DUP1 DUP3 MSTORE PUSH1 0x0 PUSH1 0x20 DUP1 DUP5 ADD DUP3 DUP2 MSTORE PUSH1 0x1 PUSH1 0x1 PUSH1 0xA0 SHL SUB DUP9 DUP2 AND DUP7 DUP9 ADD DUP2 DUP2 MSTORE DUP10 DUP4 AND PUSH1 0x60 DUP10 ADD SWAP1 DUP2 MSTORE DUP13 DUP8 MSTORE PUSH1 0x1 DUP1 DUP8 MSTORE SWAP7 DUP11 SWAP1 KECCAK256 SWAP9 MLOAD DUP10 SSTORE SWAP4 MLOAD SWAP6 DUP9 ADD DUP1 SLOAD SWAP2 MLOAD PUSH1 0x1 PUSH1 0x1 PUSH1 0xA8 SHL SUB NOT SWAP1 SWAP3 AND SWAP7 ISZERO ISZERO PUSH2 0x100 PUSH1 0x1 PUSH1 0xA8 SHL SUB NOT AND SWAP7 SWAP1 SWAP7 OR PUSH2 0x100 SWAP2 DUP5 AND SWAP2 SWAP1 SWAP2 MUL OR SWAP1 SWAP5 SSTORE SWAP1 MLOAD PUSH1 0x2 SWAP1 SWAP6 ADD DUP1 SLOAD PUSH1 0x1 PUSH1 0x1 PUSH1 0xA0 SHL SUB NOT AND SWAP6 SWAP1 SWAP2 AND SWAP5 SWAP1 SWAP5 OR SWAP1 SWAP4 SSTORE DUP4 MLOAD SWAP2 DUP3 MSTORE SWAP2 DUP2 ADD SWAP2 SWAP1 SWAP2 MSTORE DUP5 SWAP2 PUSH32 0xD3BED23C3DCD8281DC4D066DB4DCAB982477B389583679F17C2492B1B8001D7D SWAP2 ADD JUMPDEST PUSH1 0x40 MLOAD DUP1 SWAP2 SUB SWAP1 LOG2 POP POP POP JUMP JUMPDEST PUSH2 0x466 PUSH2 0x5FF JUMP JUMPDEST PUSH2 0x46F DUP2 PUSH2 0x5C4 JUMP JUMPDEST POP JUMP JUMPDEST PUSH2 0x47A PUSH2 0x5FF JUMP JUMPDEST PUSH2 0x484 PUSH1 0x0 PUSH2 0x62C JUMP JUMPDEST JUMP JUMPDEST PUSH2 0x48E PUSH2 0x5FF JUMP JUMPDEST PUSH1 0x0 DUP2 DUP2 MSTORE PUSH1 0x1 PUSH1 0x20 MSTORE PUSH1 0x40 SWAP1 KECCAK256 DUP1 SLOAD PUSH2 0x4DE JUMPI PUSH1 0x40 MLOAD PUSH3 0x461BCD PUSH1 0xE5 SHL DUP2 MSTORE PUSH1 0x20 PUSH1 0x4 DUP3 ADD MSTORE PUSH1 0x11 PUSH1 0x24 DUP3 ADD MSTORE PUSH17 0x139BC819195C1BDCDA5D081CDD1BDC9959 PUSH1 0x7A SHL PUSH1 0x44 DUP3 ADD MSTORE PUSH1 0x64 ADD PUSH2 0x2DC JUMP JUMPDEST PUSH1 0x1 DUP2 ADD SLOAD PUSH1 0xFF AND ISZERO PUSH2 0x526 JUMPI PUSH1 0x40 MLOAD PUSH3 0x461BCD PUSH1 0xE5 SHL DUP2 MSTORE PUSH1 0x20 PUSH1 0x4 DUP3 ADD MSTORE PUSH1 0x10 PUSH1 0x24 DUP3 ADD MSTORE PUSH16 0x105B1C9958591E481C995B19585CD959 PUSH1 0x82 SHL PUSH1 0x44 DUP3 ADD MSTORE PUSH1 0x64 ADD PUSH2 0x2DC JUMP JUMPDEST DUP1 SLOAD PUSH1 0x1 DUP1 DUP4 ADD DUP1 SLOAD PUSH1 0xFF NOT AND SWAP1 SWAP2 OR SWAP1 DUP2 SWAP1 SSTORE PUSH1 0x0 DUP1 DUP5 SSTORE PUSH1 0x40 MLOAD PUSH2 0x100 SWAP1 SWAP3 DIV PUSH1 0x1 PUSH1 0x1 PUSH1 0xA0 SHL SUB AND SWAP2 PUSH2 0x8FC DUP5 ISZERO MUL SWAP2 DUP5 SWAP2 SWAP1 DUP2 DUP2 DUP2 DUP6 DUP9 DUP9 CALL SWAP4 POP POP POP POP ISZERO DUP1 ISZERO PUSH2 0x579 JUMPI RETURNDATASIZE PUSH1 0x0 DUP1 RETURNDATACOPY RETURNDATASIZE PUSH1 0x0 REVERT JUMPDEST POP PUSH1 0x1 DUP3 ADD SLOAD PUSH1 0x40 DUP1 MLOAD DUP4 DUP2 MSTORE PUSH2 0x100 SWAP1 SWAP3 DIV PUSH1 0x1 PUSH1 0x1 PUSH1 0xA0 SHL SUB AND PUSH1 0x20 DUP4 ADD MSTORE DUP5 SWAP2 PUSH32 0x846DF1DBCE22CAC5E1C873B7785204E7586AC0BE75D9F1B560AFB04649D1091C SWAP2 ADD PUSH2 0x451 JUMP JUMPDEST PUSH2 0x5CC PUSH2 0x5FF JUMP JUMPDEST PUSH1 0x1 PUSH1 0x1 PUSH1 0xA0 SHL SUB DUP2 AND PUSH2 0x5F6 JUMPI PUSH1 0x40 MLOAD PUSH4 0x1E4FBDF7 PUSH1 0xE0 SHL DUP2 MSTORE PUSH1 0x0 PUSH1 0x4 DUP3 ADD MSTORE PUSH1 0x24 ADD PUSH2 0x2DC JUMP JUMPDEST PUSH2 0x46F DUP2 PUSH2 0x62C JUMP JUMPDEST PUSH1 0x0 SLOAD PUSH1 0x1 PUSH1 0x1 PUSH1 0xA0 SHL SUB AND CALLER EQ PUSH2 0x484 JUMPI PUSH1 0x40 MLOAD PUSH4 0x118CDAA7 PUSH1 0xE0 SHL DUP2 MSTORE CALLER PUSH1 0x4 DUP3 ADD MSTORE PUSH1 0x24 ADD PUSH2 0x2DC JUMP JUMPDEST PUSH1 0x0 DUP1 SLOAD PUSH1 0x1 PUSH1 0x1 PUSH1 0xA0 SHL SUB DUP4 DUP2 AND PUSH1 0x1 PUSH1 0x1 PUSH1 0xA0 SHL SUB NOT DUP4 AND DUP2 OR DUP5 SSTORE PUSH1 0x40 MLOAD SWAP2 SWAP1 SWAP3 AND SWAP3 DUP4 SWAP2 PUSH32 0x8BE0079C531659141344CD1FD0A4F28419497F9722A3DAAFE3B4186F6B6457E0 SWAP2 SWAP1 LOG3 POP POP JUMP JUMPDEST DUP1 CALLDATALOAD PUSH1 0x1 PUSH1 0x1 PUSH1 0xA0 SHL SUB DUP2 AND DUP2 EQ PUSH2 0x693 JUMPI PUSH1 0x0 DUP1 REVERT JUMPDEST SWAP2 SWAP1 POP JUMP JUMPDEST PUSH1 0x0 DUP1 PUSH1 0x0 PUSH1 0x60 DUP5 DUP7 SUB SLT ISZERO PUSH2 0x6AD JUMPI PUSH1 0x0 DUP1 REVERT JUMPDEST DUP4 CALLDATALOAD SWAP3 POP PUSH2 0x6BD PUSH1 0x20 DUP6 ADD PUSH2 0x67C JUMP JUMPDEST SWAP2 POP PUSH2 0x6CB PUSH1 0x40 DUP6 ADD PUSH2 0x67C JUMP JUMPDEST SWAP1 POP SWAP3 POP SWAP3 POP SWAP3 JUMP JUMPDEST PUSH1 0x0 PUSH1 0x20 DUP3 DUP5 SUB SLT ISZERO PUSH2 0x6E6 JUMPI PUSH1 0x0 DUP1 REVERT JUMPDEST POP CALLDATALOAD SWAP2 SWAP1 POP JUMP JUMPDEST PUSH1 0x0 PUSH1 0x20 DUP3 DUP5 SUB SLT ISZERO PUSH2 0x6FF JUMPI PUSH1 0x0 DUP1 REVERT JUMPDEST PUSH2 0x708 DUP3 PUSH2 0x67C JUMP JUMPDEST SWAP4 SWAP3 POP POP POP JUMP INVALID LOG2 PUSH5 0x6970667358 0x22 SLT KECCAK256 DUP15 DUP15 0xDE DUP6 EXTCODESIZE PUSH10 0xBA0BC28518134A3C9807 SWAP15 0xD1 0xA6 0x4F PUSH29 0xA5B31019D226471CA5E17164736F6C6343000814003300000000000000 "},"methodIdentifiers":{"authorizeProofIn(address)":"5512351e","deposit(uint256,address,address)":"2e2d2984","deposits(uint256)":"b02c43d0","getDepositInfo(uint256)":"5328c2bf","owner()":"8da5cb5b","releaseDeposit(uint256)":"a0f109c5","renounceOwnership()":"715018a6","transferOwnership(address)":"f2fde38b"}}}}}