{
  "_format": "hh-sol-artifact-1",
  "contractName": "TenantNFT",
  "sourceName": "contracts/core/TenantNFT.sol",
  "abi": [
    {
      "inputs": [],
      "stateMutability": "nonpayable",
      "type": "constructor"
    },
    {
      "inputs": [
        {
          "internalType": "address",
          "name": "sender",
          "type": "address"
        },
        {
          "internalType": "uint256",
          "name": "tokenId",
          "type": "uint256"
        },
        {
          "internalType": "address",
          "name": "owner",
          "type": "address"
        }
      ],
      "name": "ERC721IncorrectOwner",
      "type": "error"
    },
    {
      "inputs": [
        {
          "internalType": "address",
          "name": "operator",
          "type": "address"
        },
        {
          "internalType": "uint256",
          "name": "tokenId",
          "type": "uint256"
        }
      ],
      "name": "ERC721InsufficientApproval",
      "type": "error"
    },
    {
      "inputs": [
        {
          "internalType": "address",
          "name": "approver",
          "type": "address"
        }
      ],
      "name": "ERC721InvalidApprover",
      "type": "error"
    },
    {
      "inputs": [
        {
          "internalType": "address",
          "name": "operator",
          "type": "address"
        }
      ],
      "name": "ERC721InvalidOperator",
      "type": "error"
    },
    {
      "inputs": [
        {
          "internalType": "address",
          "name": "owner",
          "type": "address"
        }
      ],
      "name": "ERC721InvalidOwner",
      "type": "error"
    },
    {
      "inputs": [
        {
          "internalType": "address",
          "name": "receiver",
          "type": "address"
        }
      ],
      "name": "ERC721InvalidReceiver",
      "type": "error"
    },
    {
      "inputs": [
        {
          "internalType": "address",
          "name": "sender",
          "type": "address"
        }
      ],
      "name": "ERC721InvalidSender",
      "type": "error"
    },
    {
      "inputs": [
        {
          "internalType": "uint256",
          "name": "tokenId",
          "type": "uint256"
        }
      ],
      "name": "ERC721NonexistentToken",
      "type": "error"
    },
    {
      "inputs": [
        {
          "internalType": "address",
          "name": "owner",
          "type": "address"
        }
      ],
      "name": "OwnableInvalidOwner",
      "type": "error"
    },
    {
      "inputs": [
        {
          "internalType": "address",
          "name": "account",
          "type": "address"
        }
      ],
      "name": "OwnableUnauthorizedAccount",
      "type": "error"
    },
    {
      "anonymous": false,
      "inputs": [
        {
          "indexed": true,
          "internalType": "address",
          "name": "owner",
          "type": "address"
        },
        {
          "indexed": true,
          "internalType": "address",
          "name": "approved",
          "type": "address"
        },
        {
          "indexed": true,
          "internalType": "uint256",
          "name": "tokenId",
          "type": "uint256"
        }
      ],
      "name": "Approval",
      "type": "event"
    },
    {
      "anonymous": false,
      "inputs": [
        {
          "indexed": true,
          "internalType": "address",
          "name": "owner",
          "type": "address"
        },
        {
          "indexed": true,
          "internalType": "address",
          "name": "operator",
          "type": "address"
        },
        {
          "indexed": false,
          "internalType": "bool",
          "name": "approved",
          "type": "bool"
        }
      ],
      "name": "ApprovalForAll",
      "type": "event"
    },
    {
      "anonymous": false,
      "inputs": [
        {
          "indexed": false,
          "internalType": "uint256",
          "name": "_fromTokenId",
          "type": "uint256"
        },
        {
          "indexed": false,
          "internalType": "uint256",
          "name": "_toTokenId",
          "type": "uint256"
        }
      ],
      "name": "BatchMetadataUpdate",
      "type": "event"
    },
    {
      "anonymous": false,
      "inputs": [
        {
          "indexed": true,
          "internalType": "uint256",
          "name": "tokenId",
          "type": "uint256"
        },
        {
          "indexed": true,
          "internalType": "address",
          "name": "tenant",
          "type": "address"
        },
        {
          "indexed": true,
          "internalType": "address",
          "name": "landlord",
          "type": "address"
        },
        {
          "indexed": false,
          "internalType": "uint256",
          "name": "deposit",
          "type": "uint256"
        },
        {
          "indexed": false,
          "internalType": "string",
          "name": "ipfsCID",
          "type": "string"
        }
      ],
      "name": "ContractCreated",
      "type": "event"
    },
    {
      "anonymous": false,
      "inputs": [
        {
          "indexed": false,
          "internalType": "uint256",
          "name": "_tokenId",
          "type": "uint256"
        }
      ],
      "name": "MetadataUpdate",
      "type": "event"
    },
    {
      "anonymous": false,
      "inputs": [
        {
          "indexed": true,
          "internalType": "address",
          "name": "previousOwner",
          "type": "address"
        },
        {
          "indexed": true,
          "internalType": "address",
          "name": "newOwner",
          "type": "address"
        }
      ],
      "name": "OwnershipTransferred",
      "type": "event"
    },
    {
      "anonymous": false,
      "inputs": [
        {
          "indexed": true,
          "internalType": "address",
          "name": "from",
          "type": "address"
        },
        {
          "indexed": true,
          "internalType": "address",
          "name": "to",
          "type": "address"
        },
        {
          "indexed": true,
          "internalType": "uint256",
          "name": "tokenId",
          "type": "uint256"
        }
      ],
      "name": "Transfer",
      "type": "event"
    },
    {
      "inputs": [
        {
          "internalType": "address",
          "name": "to",
          "type": "address"
        },
        {
          "internalType": "uint256",
          "name": "tokenId",
          "type": "uint256"
        }
      ],
      "name": "approve",
      "outputs": [],
      "stateMutability": "nonpayable",
      "type": "function"
    },
    {
      "inputs": [
        {
          "internalType": "address",
          "name": "owner",
          "type": "address"
        }
      ],
      "name": "balanceOf",
      "outputs": [
        {
          "internalType": "uint256",
          "name": "",
          "type": "uint256"
        }
      ],
      "stateMutability": "view",
      "type": "function"
    },
    {
      "inputs": [
        {
          "internalType": "uint256",
          "name": "tokenId",
          "type": "uint256"
        }
      ],
      "name": "getApproved",
      "outputs": [
        {
          "internalType": "address",
          "name": "",
          "type": "address"
        }
      ],
      "stateMutability": "view",
      "type": "function"
    },
    {
      "inputs": [
        {
          "internalType": "uint256",
          "name": "tokenId",
          "type": "uint256"
        }
      ],
      "name": "getLeaseInfo",
      "outputs": [
        {
          "components": [
            {
              "internalType": "uint256",
              "name": "tokenId",
              "type": "uint256"
            },
            {
              "internalType": "address",
              "name": "tenant",
              "type": "address"
            },
            {
              "internalType": "address",
              "name": "landlord",
              "type": "address"
            },
            {
              "internalType": "uint256",
              "name": "deposit",
              "type": "uint256"
            },
            {
              "internalType": "string",
              "name": "ipfsCID",
              "type": "string"
            },
            {
              "internalType": "enum ProofTypes.VerifyStatus",
              "name": "status",
              "type": "uint8"
            }
          ],
          "internalType": "struct ProofTypes.Lease",
          "name": "",
          "type": "tuple"
        }
      ],
      "stateMutability": "view",
      "type": "function"
    },
    {
      "inputs": [
        {
          "internalType": "address",
          "name": "owner",
          "type": "address"
        },
        {
          "internalType": "address",
          "name": "operator",
          "type": "address"
        }
      ],
      "name": "isApprovedForAll",
      "outputs": [
        {
          "internalType": "bool",
          "name": "",
          "type": "bool"
        }
      ],
      "stateMutability": "view",
      "type": "function"
    },
    {
      "inputs": [
        {
          "internalType": "uint256",
          "name": "",
          "type": "uint256"
        }
      ],
      "name": "landlordOf",
      "outputs": [
        {
          "internalType": "address",
          "name": "",
          "type": "address"
        }
      ],
      "stateMutability": "view",
      "type": "function"
    },
    {
      "inputs": [
        {
          "internalType": "uint256",
          "name": "",
          "type": "uint256"
        }
      ],
      "name": "leases",
      "outputs": [
        {
          "internalType": "uint256",
          "name": "tokenId",
          "type": "uint256"
        },
        {
          "internalType": "address",
          "name": "tenant",
          "type": "address"
        },
        {
          "internalType": "address",
          "name": "landlord",
          "type": "address"
        },
        {
          "internalType": "uint256",
          "name": "deposit",
          "type": "uint256"
        },
        {
          "internalType": "string",
          "name": "ipfsCID",
          "type": "string"
        },
        {
          "internalType": "enum ProofTypes.VerifyStatus",
          "name": "status",
          "type": "uint8"
        }
      ],
      "stateMutability": "view",
      "type": "function"
    },
    {
      "inputs": [
        {
          "internalType": "address",
          "name": "tenant",
          "type": "address"
        },
        {
          "internalType": "address",
          "name": "landlord",
          "type": "address"
        },
        {
          "internalType": "string",
          "name": "ipfsCID",
          "type": "string"
        },
        {
          "internalType": "uint256",
          "name": "deposit",
          "type": "uint256"
        }
      ],
      "name": "mintTenantNFT",
      "outputs": [
        {
          "internalType": "uint256",
          "name": "",
          "type": "uint256"
        }
      ],
      "stateMutability": "payable",
      "type": "function"
    },
    {
      "inputs": [],
      "name": "name",
      "outputs": [
        {
          "internalType": "string",
          "name": "",
          "type": "string"
        }
      ],
      "stateMutability": "view",
      "type": "function"
    },
    {
      "inputs": [],
      "name": "owner",
      "outputs": [
        {
          "internalType": "address",
          "name": "",
          "type": "address"
        }
      ],
      "stateMutability": "view",
      "type": "function"
    },
    {
      "inputs": [
        {
          "internalType": "uint256",
          "name": "tokenId",
          "type": "uint256"
        }
      ],
      "name": "ownerOf",
      "outputs": [
        {
          "internalType": "address",
          "name": "",
          "type": "address"
        }
      ],
      "stateMutability": "view",
      "type": "function"
    },
    {
      "inputs": [],
      "name": "proofInAddress",
      "outputs": [
        {
          "internalType": "address",
          "name": "",
          "type": "address"
        }
      ],
      "stateMutability": "view",
      "type": "function"
    },
    {
      "inputs": [],
      "name": "renounceOwnership",
      "outputs": [],
      "stateMutability": "nonpayable",
      "type": "function"
    },
    {
      "inputs": [
        {
          "internalType": "address",
          "name": "from",
          "type": "address"
        },
        {
          "internalType": "address",
          "name": "to",
          "type": "address"
        },
        {
          "internalType": "uint256",
          "name": "tokenId",
          "type": "uint256"
        }
      ],
      "name": "safeTransferFrom",
      "outputs": [],
      "stateMutability": "nonpayable",
      "type": "function"
    },
    {
      "inputs": [
        {
          "internalType": "address",
          "name": "from",
          "type": "address"
        },
        {
          "internalType": "address",
          "name": "to",
          "type": "address"
        },
        {
          "internalType": "uint256",
          "name": "tokenId",
          "type": "uint256"
        },
        {
          "internalType": "bytes",
          "name": "data",
          "type": "bytes"
        }
      ],
      "name": "safeTransferFrom",
      "outputs": [],
      "stateMutability": "nonpayable",
      "type": "function"
    },
    {
      "inputs": [
        {
          "internalType": "address",
          "name": "operator",
          "type": "address"
        },
        {
          "internalType": "bool",
          "name": "approved",
          "type": "bool"
        }
      ],
      "name": "setApprovalForAll",
      "outputs": [],
      "stateMutability": "nonpayable",
      "type": "function"
    },
    {
      "inputs": [
        {
          "internalType": "address",
          "name": "_depositVault",
          "type": "address"
        }
      ],
      "name": "setDepositVault",
      "outputs": [],
      "stateMutability": "nonpayable",
      "type": "function"
    },
    {
      "inputs": [
        {
          "internalType": "address",
          "name": "_proofInAddress",
          "type": "address"
        }
      ],
      "name": "setProofInAddress",
      "outputs": [],
      "stateMutability": "nonpayable",
      "type": "function"
    },
    {
      "inputs": [
        {
          "internalType": "bytes4",
          "name": "interfaceId",
          "type": "bytes4"
        }
      ],
      "name": "supportsInterface",
      "outputs": [
        {
          "internalType": "bool",
          "name": "",
          "type": "bool"
        }
      ],
      "stateMutability": "view",
      "type": "function"
    },
    {
      "inputs": [],
      "name": "symbol",
      "outputs": [
        {
          "internalType": "string",
          "name": "",
          "type": "string"
        }
      ],
      "stateMutability": "view",
      "type": "function"
    },
    {
      "inputs": [],
      "name": "tenantDepositVault",
      "outputs": [
        {
          "internalType": "contract IDepositVault",
          "name": "",
          "type": "address"
        }
      ],
      "stateMutability": "view",
      "type": "function"
    },
    {
      "inputs": [
        {
          "internalType": "uint256",
          "name": "tokenId",
          "type": "uint256"
        }
      ],
      "name": "tokenURI",
      "outputs": [
        {
          "internalType": "string",
          "name": "",
          "type": "string"
        }
      ],
      "stateMutability": "view",
      "type": "function"
    },
    {
      "inputs": [],
      "name": "totalMinted",
      "outputs": [
        {
          "internalType": "uint256",
          "name": "",
          "type": "uint256"
        }
      ],
      "stateMutability": "view",
      "type": "function"
    },
    {
      "inputs": [
        {
          "internalType": "address",
          "name": "from",
          "type": "address"
        },
        {
          "internalType": "address",
          "name": "to",
          "type": "address"
        },
        {
          "internalType": "uint256",
          "name": "tokenId",
          "type": "uint256"
        }
      ],
      "name": "transferFrom",
      "outputs": [],
      "stateMutability": "nonpayable",
      "type": "function"
    },
    {
      "inputs": [
        {
          "internalType": "address",
          "name": "newOwner",
          "type": "address"
        }
      ],
      "name": "transferOwnership",
      "outputs": [],
      "stateMutability": "nonpayable",
      "type": "function"
    }
  ],
  "bytecode": "0x60806040523480156200001157600080fd5b503360405180604001604052806012815260200171141c9bdbd9921bdb5955195b985b9d13919560721b8152506040518060400160405280600481526020016328242a2760e11b81525081600090816200006c9190620001b6565b5060016200007b8282620001b6565b5050506001600160a01b038116620000ad57604051631e4fbdf760e01b81526000600482015260240160405180910390fd5b620000b881620000bf565b5062000282565b600780546001600160a01b038381166001600160a01b0319831681179093556040519116919082907f8be0079c531659141344cd1fd0a4f28419497f9722a3daafe3b4186f6b6457e090600090a35050565b634e487b7160e01b600052604160045260246000fd5b600181811c908216806200013c57607f821691505b6020821081036200015d57634e487b7160e01b600052602260045260246000fd5b50919050565b601f821115620001b157600081815260208120601f850160051c810160208610156200018c5750805b601f850160051c820191505b81811015620001ad5782815560010162000198565b5050505b505050565b81516001600160401b03811115620001d257620001d262000111565b620001ea81620001e3845462000127565b8462000163565b602080601f831160018114620002225760008415620002095750858301515b600019600386901b1c1916600185901b178555620001ad565b600085815260208120601f198616915b82811015620002535788860151825594840194600190910190840162000232565b5085821015620002725787850151600019600388901b60f8161c191681555b5050505050600190811b01905550565b611dab80620002926000396000f3fe6080604052600436106101665760003560e01c8063715018a6116100d1578063b88d4fde1161008a578063e0ecae9311610064578063e0ecae931461044f578063e985e9c514610462578063f2fde38b14610482578063f3170e75146104a257600080fd5b8063b88d4fde146103ef578063c66ad0121461040f578063c87b56dd1461042f57600080fd5b8063715018a6146103405780638927a106146103555780638da5cb5b1461038757806395d89b41146103a5578063a22cb465146103ba578063a2309ff8146103da57600080fd5b806342842e0e1161012357806342842e0e1461025c578063460e5e451461027c57806356bbfcf51461029c5780636204b1f5146102bc5780636352211e146102f257806370a082311461031257600080fd5b806301ffc9a71461016b57806306fdde03146101a0578063081812fc146101c2578063095ea7b3146101fa57806323b872dd1461021c57806341aa9be71461023c575b600080fd5b34801561017757600080fd5b5061018b610186366004611754565b6104cf565b60405190151581526020015b60405180910390f35b3480156101ac57600080fd5b506101b56104fa565b60405161019791906117c1565b3480156101ce57600080fd5b506101e26101dd3660046117d4565b61058c565b6040516001600160a01b039091168152602001610197565b34801561020657600080fd5b5061021a610215366004611809565b6105b5565b005b34801561022857600080fd5b5061021a610237366004611833565b6105c4565b34801561024857600080fd5b506009546101e2906001600160a01b031681565b34801561026857600080fd5b5061021a610277366004611833565b610654565b34801561028857600080fd5b5061021a61029736600461186f565b610674565b3480156102a857600080fd5b5061021a6102b736600461186f565b61069e565b3480156102c857600080fd5b506101e26102d73660046117d4565b600c602052600090815260409020546001600160a01b031681565b3480156102fe57600080fd5b506101e261030d3660046117d4565b61071e565b34801561031e57600080fd5b5061033261032d36600461186f565b610729565b604051908152602001610197565b34801561034c57600080fd5b5061021a610771565b34801561036157600080fd5b506103756103703660046117d4565b610785565b604051610197969594939291906118c2565b34801561039357600080fd5b506007546001600160a01b03166101e2565b3480156103b157600080fd5b506101b5610854565b3480156103c657600080fd5b5061021a6103d5366004611915565b610863565b3480156103e657600080fd5b50600854610332565b3480156103fb57600080fd5b5061021a61040a3660046119dd565b61086e565b34801561041b57600080fd5b50600a546101e2906001600160a01b031681565b34801561043b57600080fd5b506101b561044a3660046117d4565b610886565b61033261045d366004611a59565b610997565b34801561046e57600080fd5b5061018b61047d366004611ad3565b610cb5565b34801561048e57600080fd5b5061021a61049d36600461186f565b610ce3565b3480156104ae57600080fd5b506104c26104bd3660046117d4565b610d21565b6040516101979190611b06565b60006001600160e01b03198216632483248360e11b14806104f457506104f482610ed1565b92915050565b60606000805461050990611b6c565b80601f016020809104026020016040519081016040528092919081815260200182805461053590611b6c565b80156105825780601f1061055757610100808354040283529160200191610582565b820191906000526020600020905b81548152906001019060200180831161056557829003601f168201915b5050505050905090565b600061059782610f21565b506000828152600460205260409020546001600160a01b03166104f4565b6105c0828233610f5a565b5050565b6001600160a01b0382166105f357604051633250574960e11b8152600060048201526024015b60405180910390fd5b6000610600838333610f67565b9050836001600160a01b0316816001600160a01b03161461064e576040516364283d7b60e01b81526001600160a01b03808616600483015260248201849052821660448201526064016105ea565b50505050565b61066f8383836040518060200160405280600081525061086e565b505050565b61067c611060565b600980546001600160a01b0319166001600160a01b0392909216919091179055565b6106a6611060565b6001600160a01b0381166106fc5760405162461bcd60e51b815260206004820152601760248201527f496e76616c69642050726f6f66496e206164647265737300000000000000000060448201526064016105ea565b600a80546001600160a01b0319166001600160a01b0392909216919091179055565b60006104f482610f21565b60006001600160a01b038216610755576040516322718ad960e21b8152600060048201526024016105ea565b506001600160a01b031660009081526003602052604090205490565b610779611060565b610783600061108d565b565b600b602052600090815260409020805460018201546002830154600384015460048501805494956001600160a01b0394851695939094169391926107c890611b6c565b80601f01602080910402602001604051908101604052809291908181526020018280546107f490611b6c565b80156108415780601f1061081657610100808354040283529160200191610841565b820191906000526020600020905b81548152906001019060200180831161082457829003601f168201915b5050506005909301549192505060ff1686565b60606001805461050990611b6c565b6105c03383836110df565b6108798484846105c4565b61064e338585858561117e565b606061089182610f21565b50600082815260066020526040812080546108ab90611b6c565b80601f01602080910402602001604051908101604052809291908181526020018280546108d790611b6c565b80156109245780601f106108f957610100808354040283529160200191610924565b820191906000526020600020905b81548152906001019060200180831161090757829003601f168201915b50505050509050600061094260408051602081019091526000815290565b90508051600003610954575092915050565b81511561098657808260405160200161096e929190611ba6565b60405160208183030381529060405292505050919050565b61098f846112a9565b949350505050565b600a546000906001600160a01b031633146109f45760405162461bcd60e51b815260206004820152601d60248201527f4f6e6c792050726f6f66496e20636f6e747261637420616c6c6f77656400000060448201526064016105ea565b813414610a435760405162461bcd60e51b815260206004820152601c60248201527f4465706f736974206d757374206d61746368206d73672e76616c75650000000060448201526064016105ea565b6001600160a01b038516610a925760405162461bcd60e51b8152602060048201526016602482015275496e76616c69642074656e616e74206164647265737360501b60448201526064016105ea565b6001600160a01b038416610ae85760405162461bcd60e51b815260206004820152601860248201527f496e76616c6964206c616e646c6f72642061646472657373000000000000000060448201526064016105ea565b60088054906000610af883611bd5565b9091555050600854610b0a868261131e565b610b148185611338565b6000818152600c6020908152604080832080546001600160a01b03199081166001600160a01b038b8116918217909355835160c0810185528781528c8416818701908152818601928352606082018b8152608083018d8152600260a085018190528b8b52600b909952969098208251815590516001820180548616918716919091179055915195820180549093169590931694909417905592516003830155516004820190610bc39082611c42565b5060a082015160058201805460ff19166001836004811115610be757610be761188a565b021790555050600954604051630b8b4a6160e21b8152600481018490526001600160a01b03898116602483015288811660448301529091169150632e2d29849085906064016000604051808303818588803b158015610c4557600080fd5b505af1158015610c59573d6000803e3d6000fd5b5050505050846001600160a01b0316866001600160a01b0316827f43b75138406de9ed4d3d70299a24257151873b1c2530d5fa56d6c9656341e2f38688604051610ca4929190611d02565b60405180910390a495945050505050565b6001600160a01b03918216600090815260056020908152604080832093909416825291909152205460ff1690565b610ceb611060565b6001600160a01b038116610d1557604051631e4fbdf760e01b8152600060048201526024016105ea565b610d1e8161108d565b50565b610d566040805160c081018252600080825260208201819052918101829052606080820183905260808201529060a082015290565b6000828152600260205260409020546001600160a01b0316610db15760405162461bcd60e51b8152602060048201526014602482015273151bdad95b88191bd95cc81b9bdd08195e1a5cdd60621b60448201526064016105ea565b6000828152600b6020908152604091829020825160c0810184528154815260018201546001600160a01b039081169382019390935260028201549092169282019290925260038201546060820152600482018054919291608084019190610e1790611b6c565b80601f0160208091040260200160405190810160405280929190818152602001828054610e4390611b6c565b8015610e905780601f10610e6557610100808354040283529160200191610e90565b820191906000526020600020905b815481529060010190602001808311610e7357829003601f168201915b5050509183525050600582015460209091019060ff166004811115610eb757610eb761188a565b6004811115610ec857610ec861188a565b90525092915050565b60006001600160e01b031982166380ac58cd60e01b1480610f0257506001600160e01b03198216635b5e139f60e01b145b806104f457506301ffc9a760e01b6001600160e01b03198316146104f4565b6000818152600260205260408120546001600160a01b0316806104f457604051637e27328960e01b8152600481018490526024016105ea565b61066f8383836001611388565b6000828152600260205260408120546001600160a01b0390811690831615610f9457610f9481848661148e565b6001600160a01b03811615610fd257610fb1600085600080611388565b6001600160a01b038116600090815260036020526040902080546000190190555b6001600160a01b03851615611001576001600160a01b0385166000908152600360205260409020805460010190555b60008481526002602052604080822080546001600160a01b0319166001600160a01b0389811691821790925591518793918516917fddf252ad1be2c89b69c2b068fc378daa952ba7f163c4a11628f55a4df523b3ef91a4949350505050565b6007546001600160a01b031633146107835760405163118cdaa760e01b81523360048201526024016105ea565b600780546001600160a01b038381166001600160a01b0319831681179093556040519116919082907f8be0079c531659141344cd1fd0a4f28419497f9722a3daafe3b4186f6b6457e090600090a35050565b6001600160a01b03821661111157604051630b61174360e31b81526001600160a01b03831660048201526024016105ea565b6001600160a01b03838116600081815260056020908152604080832094871680845294825291829020805460ff191686151590811790915591519182527f17307eab39ab6107e8899845ad3d59bd9653f200f220920489ca2b5937696c31910160405180910390a3505050565b6001600160a01b0383163b156112a257604051630a85bd0160e11b81526001600160a01b0384169063150b7a02906111c0908890889087908790600401611d1b565b6020604051808303816000875af19250505080156111fb575060408051601f3d908101601f191682019092526111f891810190611d58565b60015b611264573d808015611229576040519150601f19603f3d011682016040523d82523d6000602084013e61122e565b606091505b50805160000361125c57604051633250574960e11b81526001600160a01b03851660048201526024016105ea565b805160208201fd5b6001600160e01b03198116630a85bd0160e11b146112a057604051633250574960e11b81526001600160a01b03851660048201526024016105ea565b505b5050505050565b60606112b482610f21565b5060006112cc60408051602081019091526000815290565b905060008151116112ec5760405180602001604052806000815250611317565b806112f6846114f2565b604051602001611307929190611ba6565b6040516020818303038152906040525b9392505050565b6105c0828260405180602001604052806000815250611586565b60008281526006602052604090206113508282611c42565b506040518281527ff8e1a15aba9398e019f0b49df1a4fde98ee17ae345cb5f6b5e2c27f5033e8ce79060200160405180910390a15050565b808061139c57506001600160a01b03821615155b1561145e5760006113ac84610f21565b90506001600160a01b038316158015906113d85750826001600160a01b0316816001600160a01b031614155b80156113eb57506113e98184610cb5565b155b156114145760405163a9fbf51f60e01b81526001600160a01b03841660048201526024016105ea565b811561145c5783856001600160a01b0316826001600160a01b03167f8c5be1e5ebec7d5bd14f71427d1e84f3dd0314c0f7b2291e5b200ac8c7c3b92560405160405180910390a45b505b5050600090815260046020526040902080546001600160a01b0319166001600160a01b0392909216919091179055565b61149983838361159e565b61066f576001600160a01b0383166114c757604051637e27328960e01b8152600481018290526024016105ea565b60405163177e802f60e01b81526001600160a01b0383166004820152602481018290526044016105ea565b606060006114ff83611601565b600101905060008167ffffffffffffffff81111561151f5761151f611951565b6040519080825280601f01601f191660200182016040528015611549576020820181803683370190505b5090508181016020015b600019016f181899199a1a9b1b9c1cb0b131b232b360811b600a86061a8153600a8504945084611553575b509392505050565b61159083836116d9565b61066f33600085858561117e565b60006001600160a01b0383161580159061098f5750826001600160a01b0316846001600160a01b031614806115d857506115d88484610cb5565b8061098f5750506000908152600460205260409020546001600160a01b03908116911614919050565b60008072184f03e93ff9f4daa797ed6e38ed64bf6a1f0160401b83106116405772184f03e93ff9f4daa797ed6e38ed64bf6a1f0160401b830492506040015b6d04ee2d6d415b85acef8100000000831061166c576d04ee2d6d415b85acef8100000000830492506020015b662386f26fc10000831061168a57662386f26fc10000830492506010015b6305f5e10083106116a2576305f5e100830492506008015b61271083106116b657612710830492506004015b606483106116c8576064830492506002015b600a83106104f45760010192915050565b6001600160a01b03821661170357604051633250574960e11b8152600060048201526024016105ea565b600061171183836000610f67565b90506001600160a01b0381161561066f576040516339e3563760e11b8152600060048201526024016105ea565b6001600160e01b031981168114610d1e57600080fd5b60006020828403121561176657600080fd5b81356113178161173e565b60005b8381101561178c578181015183820152602001611774565b50506000910152565b600081518084526117ad816020860160208601611771565b601f01601f19169290920160200192915050565b6020815260006113176020830184611795565b6000602082840312156117e657600080fd5b5035919050565b80356001600160a01b038116811461180457600080fd5b919050565b6000806040838503121561181c57600080fd5b611825836117ed565b946020939093013593505050565b60008060006060848603121561184857600080fd5b611851846117ed565b925061185f602085016117ed565b9150604084013590509250925092565b60006020828403121561188157600080fd5b611317826117ed565b634e487b7160e01b600052602160045260246000fd5b600581106118be57634e487b7160e01b600052602160045260246000fd5b9052565b8681526001600160a01b038681166020830152851660408201526060810184905260c0608082018190526000906118fb90830185611795565b905061190a60a08301846118a0565b979650505050505050565b6000806040838503121561192857600080fd5b611931836117ed565b91506020830135801515811461194657600080fd5b809150509250929050565b634e487b7160e01b600052604160045260246000fd5b600067ffffffffffffffff8084111561198257611982611951565b604051601f8501601f19908116603f011681019082821181831017156119aa576119aa611951565b816040528093508581528686860111156119c357600080fd5b858560208301376000602087830101525050509392505050565b600080600080608085870312156119f357600080fd5b6119fc856117ed565b9350611a0a602086016117ed565b925060408501359150606085013567ffffffffffffffff811115611a2d57600080fd5b8501601f81018713611a3e57600080fd5b611a4d87823560208401611967565b91505092959194509250565b60008060008060808587031215611a6f57600080fd5b611a78856117ed565b9350611a86602086016117ed565b9250604085013567ffffffffffffffff811115611aa257600080fd5b8501601f81018713611ab357600080fd5b611ac287823560208401611967565b949793965093946060013593505050565b60008060408385031215611ae657600080fd5b611aef836117ed565b9150611afd602084016117ed565b90509250929050565b60208152815160208201526000602083015160018060a01b038082166040850152806040860151166060850152505060608301516080830152608083015160c060a0840152611b5860e0840182611795565b905060a084015161157e60c08501826118a0565b600181811c90821680611b8057607f821691505b602082108103611ba057634e487b7160e01b600052602260045260246000fd5b50919050565b60008351611bb8818460208801611771565b835190830190611bcc818360208801611771565b01949350505050565b600060018201611bf557634e487b7160e01b600052601160045260246000fd5b5060010190565b601f82111561066f57600081815260208120601f850160051c81016020861015611c235750805b601f850160051c820191505b818110156112a057828155600101611c2f565b815167ffffffffffffffff811115611c5c57611c5c611951565b611c7081611c6a8454611b6c565b84611bfc565b602080601f831160018114611ca55760008415611c8d5750858301515b600019600386901b1c1916600185901b1785556112a0565b600085815260208120601f198616915b82811015611cd457888601518255948401946001909101908401611cb5565b5085821015611cf25787850151600019600388901b60f8161c191681555b5050505050600190811b01905550565b82815260406020820152600061098f6040830184611795565b6001600160a01b0385811682528416602082015260408101839052608060608201819052600090611d4e90830184611795565b9695505050505050565b600060208284031215611d6a57600080fd5b81516113178161173e56fea2646970667358221220f83dfe0865148443f60e6ce88df1ece1cb745cf590830bc35b152c10b6a0c37964736f6c63430008140033",
  "linkReferences": {},
  "deployedLinkReferences": {}
}