{
  "_format": "hh-sol-artifact-1",
  "contractName": "ProofAccess",
  "sourceName": "contracts/core/ProofAccess.sol",
  "abi": [
    {
      "inputs": [
        {
          "internalType": "address",
          "name": "admin",
          "type": "address"
        }
      ],
      "stateMutability": "nonpayable",
      "type": "constructor"
    },
    {
      "inputs": [],
      "name": "AccessControlBadConfirmation",
      "type": "error"
    },
    {
      "inputs": [
        {
          "internalType": "address",
          "name": "account",
          "type": "address"
        },
        {
          "internalType": "bytes32",
          "name": "neededRole",
          "type": "bytes32"
        }
      ],
      "name": "AccessControlUnauthorizedAccount",
      "type": "error"
    },
    {
      "anonymous": false,
      "inputs": [
        {
          "indexed": true,
          "internalType": "bytes32",
          "name": "role",
          "type": "bytes32"
        },
        {
          "indexed": true,
          "internalType": "bytes32",
          "name": "previousAdminRole",
          "type": "bytes32"
        },
        {
          "indexed": true,
          "internalType": "bytes32",
          "name": "newAdminRole",
          "type": "bytes32"
        }
      ],
      "name": "RoleAdminChanged",
      "type": "event"
    },
    {
      "anonymous": false,
      "inputs": [
        {
          "indexed": true,
          "internalType": "bytes32",
          "name": "role",
          "type": "bytes32"
        },
        {
          "indexed": true,
          "internalType": "address",
          "name": "account",
          "type": "address"
        },
        {
          "indexed": true,
          "internalType": "address",
          "name": "sender",
          "type": "address"
        }
      ],
      "name": "RoleGranted",
      "type": "event"
    },
    {
      "anonymous": false,
      "inputs": [
        {
          "indexed": true,
          "internalType": "bytes32",
          "name": "role",
          "type": "bytes32"
        },
        {
          "indexed": true,
          "internalType": "address",
          "name": "account",
          "type": "address"
        },
        {
          "indexed": true,
          "internalType": "address",
          "name": "sender",
          "type": "address"
        }
      ],
      "name": "RoleRevoked",
      "type": "event"
    },
    {
      "inputs": [],
      "name": "ADMIN_ROLE",
      "outputs": [
        {
          "internalType": "bytes32",
          "name": "",
          "type": "bytes32"
        }
      ],
      "stateMutability": "view",
      "type": "function"
    },
    {
      "inputs": [],
      "name": "DEFAULT_ADMIN_ROLE",
      "outputs": [
        {
          "internalType": "bytes32",
          "name": "",
          "type": "bytes32"
        }
      ],
      "stateMutability": "view",
      "type": "function"
    },
    {
      "inputs": [],
      "name": "LANDLORD_ROLE",
      "outputs": [
        {
          "internalType": "bytes32",
          "name": "",
          "type": "bytes32"
        }
      ],
      "stateMutability": "view",
      "type": "function"
    },
    {
      "inputs": [],
      "name": "SYSTEM_ROLE",
      "outputs": [
        {
          "internalType": "bytes32",
          "name": "",
          "type": "bytes32"
        }
      ],
      "stateMutability": "view",
      "type": "function"
    },
    {
      "inputs": [],
      "name": "TENANT_ROLE",
      "outputs": [
        {
          "internalType": "bytes32",
          "name": "",
          "type": "bytes32"
        }
      ],
      "stateMutability": "view",
      "type": "function"
    },
    {
      "inputs": [
        {
          "internalType": "bytes32",
          "name": "role",
          "type": "bytes32"
        }
      ],
      "name": "getRoleAdmin",
      "outputs": [
        {
          "internalType": "bytes32",
          "name": "",
          "type": "bytes32"
        }
      ],
      "stateMutability": "view",
      "type": "function"
    },
    {
      "inputs": [
        {
          "internalType": "address",
          "name": "account",
          "type": "address"
        }
      ],
      "name": "grantLandlord",
      "outputs": [],
      "stateMutability": "nonpayable",
      "type": "function"
    },
    {
      "inputs": [
        {
          "internalType": "bytes32",
          "name": "role",
          "type": "bytes32"
        },
        {
          "internalType": "address",
          "name": "account",
          "type": "address"
        }
      ],
      "name": "grantRole",
      "outputs": [],
      "stateMutability": "nonpayable",
      "type": "function"
    },
    {
      "inputs": [
        {
          "internalType": "address",
          "name": "account",
          "type": "address"
        }
      ],
      "name": "grantSystem",
      "outputs": [],
      "stateMutability": "nonpayable",
      "type": "function"
    },
    {
      "inputs": [
        {
          "internalType": "address",
          "name": "account",
          "type": "address"
        }
      ],
      "name": "grantTenant",
      "outputs": [],
      "stateMutability": "nonpayable",
      "type": "function"
    },
    {
      "inputs": [
        {
          "internalType": "bytes32",
          "name": "role",
          "type": "bytes32"
        },
        {
          "internalType": "address",
          "name": "account",
          "type": "address"
        }
      ],
      "name": "hasRole",
      "outputs": [
        {
          "internalType": "bool",
          "name": "",
          "type": "bool"
        }
      ],
      "stateMutability": "view",
      "type": "function"
    },
    {
      "inputs": [
        {
          "internalType": "bytes32",
          "name": "role",
          "type": "bytes32"
        },
        {
          "internalType": "address",
          "name": "callerConfirmation",
          "type": "address"
        }
      ],
      "name": "renounceRole",
      "outputs": [],
      "stateMutability": "nonpayable",
      "type": "function"
    },
    {
      "inputs": [
        {
          "internalType": "address",
          "name": "account",
          "type": "address"
        }
      ],
      "name": "revokeLandlord",
      "outputs": [],
      "stateMutability": "nonpayable",
      "type": "function"
    },
    {
      "inputs": [
        {
          "internalType": "bytes32",
          "name": "role",
          "type": "bytes32"
        },
        {
          "internalType": "address",
          "name": "account",
          "type": "address"
        }
      ],
      "name": "revokeRole",
      "outputs": [],
      "stateMutability": "nonpayable",
      "type": "function"
    },
    {
      "inputs": [
        {
          "internalType": "address",
          "name": "account",
          "type": "address"
        }
      ],
      "name": "revokeTenant",
      "outputs": [],
      "stateMutability": "nonpayable",
      "type": "function"
    },
    {
      "inputs": [
        {
          "internalType": "bytes4",
          "name": "interfaceId",
          "type": "bytes4"
        }
      ],
      "name": "supportsInterface",
      "outputs": [
        {
          "internalType": "bool",
          "name": "",
          "type": "bool"
        }
      ],
      "stateMutability": "view",
      "type": "function"
    }
  ],
  "bytecode": "0x608060405234801561001057600080fd5b5060405161087038038061087083398101604081905261002f91610118565b61003a60008261006c565b506100657fa49807205ce4d355092ef5a8a18f56e8913cf4a201fbe287825b095693c217758261006c565b5050610148565b6000828152602081815260408083206001600160a01b038516845290915281205460ff1661010e576000838152602081815260408083206001600160a01b03861684529091529020805460ff191660011790556100c63390565b6001600160a01b0316826001600160a01b0316847f2f8788117e7eff1d82e926ec794901d17c78024a50270940304540a733656f0d60405160405180910390a4506001610112565b5060005b92915050565b60006020828403121561012a57600080fd5b81516001600160a01b038116811461014157600080fd5b9392505050565b610719806101576000396000f3fe608060405234801561001057600080fd5b50600436106101005760003560e01c806375b238fc11610097578063a217fddf11610066578063a217fddf1461025c578063c3c38e3d14610264578063d547741f14610277578063eebe4bcc1461028a57600080fd5b806375b238fc146101fa5780637b9da10e1461020f57806391d14854146102225780639875ea2b1461023557600080fd5b806336568abe116100d357806336568abe1461019a57806369f99500146101ad57806371aef6a4146101c057806375071d2a146101d357600080fd5b806301ffc9a714610105578063091115061461012d578063248a9ca3146101625780632f2ff15d14610185575b600080fd5b610118610113366004610616565b61029d565b60405190151581526020015b60405180910390f35b6101547f0c10414aabe9dbfb3c6c498afa77d206e250116264166f38171a712598ea1bfc81565b604051908152602001610124565b610154610170366004610647565b60009081526020819052604090206001015490565b61019861019336600461067c565b6102d4565b005b6101986101a836600461067c565b6102ff565b6101986101bb3660046106a8565b610337565b6101986101ce3660046106a8565b61037d565b6101547f5719df9ef2c4678b547f89e4f5ae410dbf400fc51cf3ded434c55f6adea2c43f81565b6101546000805160206106c483398151915281565b61019861021d3660046106a8565b6103bf565b61011861023036600461067c565b610401565b6101547f183424541d14cd9bd5d5e4d92b46028be6700d27ec9e3ecc10cbe3e71dea50a581565b610154600081565b6101986102723660046106a8565b61042a565b61019861028536600461067c565b610468565b6101986102983660046106a8565b61048d565b60006001600160e01b03198216637965db0b60e01b14806102ce57506301ffc9a760e01b6001600160e01b03198316145b92915050565b6000828152602081905260409020600101546102ef816104cf565b6102f983836104dc565b50505050565b6001600160a01b03811633146103285760405163334bd91960e11b815260040160405180910390fd5b610332828261056e565b505050565b6000805160206106c483398151915261034f816104cf565b6103797f183424541d14cd9bd5d5e4d92b46028be6700d27ec9e3ecc10cbe3e71dea50a5836102d4565b5050565b6000805160206106c4833981519152610395816104cf565b6103797f5719df9ef2c4678b547f89e4f5ae410dbf400fc51cf3ded434c55f6adea2c43f836102d4565b6000805160206106c48339815191526103d7816104cf565b6103797f183424541d14cd9bd5d5e4d92b46028be6700d27ec9e3ecc10cbe3e71dea50a583610468565b6000918252602082815260408084206001600160a01b0393909316845291905290205460ff1690565b6000805160206106c4833981519152610442816104cf565b6103797f0c10414aabe9dbfb3c6c498afa77d206e250116264166f38171a712598ea1bfc835b600082815260208190526040902060010154610483816104cf565b6102f9838361056e565b6000805160206106c48339815191526104a5816104cf565b6103797f0c10414aabe9dbfb3c6c498afa77d206e250116264166f38171a712598ea1bfc836102d4565b6104d981336105d9565b50565b60006104e88383610401565b610566576000838152602081815260408083206001600160a01b03861684529091529020805460ff1916600117905561051e3390565b6001600160a01b0316826001600160a01b0316847f2f8788117e7eff1d82e926ec794901d17c78024a50270940304540a733656f0d60405160405180910390a45060016102ce565b5060006102ce565b600061057a8383610401565b15610566576000838152602081815260408083206001600160a01b0386168085529252808320805460ff1916905551339286917ff6391f5c32d9c69d2a47ea670b442974b53935d1edc7fd64eb21e047a839171b9190a45060016102ce565b6105e38282610401565b6103795760405163e2517d3f60e01b81526001600160a01b03821660048201526024810183905260440160405180910390fd5b60006020828403121561062857600080fd5b81356001600160e01b03198116811461064057600080fd5b9392505050565b60006020828403121561065957600080fd5b5035919050565b80356001600160a01b038116811461067757600080fd5b919050565b6000806040838503121561068f57600080fd5b8235915061069f60208401610660565b90509250929050565b6000602082840312156106ba57600080fd5b6106408261066056fea49807205ce4d355092ef5a8a18f56e8913cf4a201fbe287825b095693c21775a264697066735822122026d181b601f18d30cb837ba60403f48c6a27edcbfe3c25496fb57483e317ddd964736f6c63430008140033",
  "linkReferences": {},
  "deployedLinkReferences": {}
}