{
  "_format": "hh-sol-artifact-1",
  "contractName": "DepositVault",
  "sourceName": "contracts/core/DepositVault.sol",
  "abi": [
    {
      "inputs": [],
      "stateMutability": "nonpayable",
      "type": "constructor"
    },
    {
      "inputs": [
        {
          "internalType": "address",
          "name": "owner",
          "type": "address"
        }
      ],
      "name": "OwnableInvalidOwner",
      "type": "error"
    },
    {
      "inputs": [
        {
          "internalType": "address",
          "name": "account",
          "type": "address"
        }
      ],
      "name": "OwnableUnauthorizedAccount",
      "type": "error"
    },
    {
      "anonymous": false,
      "inputs": [
        {
          "indexed": true,
          "internalType": "uint256",
          "name": "tokenId",
          "type": "uint256"
        },
        {
          "indexed": false,
          "internalType": "uint256",
          "name": "amount",
          "type": "uint256"
        },
        {
          "indexed": false,
          "internalType": "address",
          "name": "tenant",
          "type": "address"
        }
      ],
      "name": "DepositAdded",
      "type": "event"
    },
    {
      "anonymous": false,
      "inputs": [
        {
          "indexed": true,
          "internalType": "uint256",
          "name": "tokenId",
          "type": "uint256"
        },
        {
          "indexed": false,
          "internalType": "uint256",
          "name": "amount",
          "type": "uint256"
        },
        {
          "indexed": false,
          "internalType": "address",
          "name": "tenant",
          "type": "address"
        }
      ],
      "name": "DepositReleased",
      "type": "event"
    },
    {
      "anonymous": false,
      "inputs": [
        {
          "indexed": true,
          "internalType": "address",
          "name": "previousOwner",
          "type": "address"
        },
        {
          "indexed": true,
          "internalType": "address",
          "name": "newOwner",
          "type": "address"
        }
      ],
      "name": "OwnershipTransferred",
      "type": "event"
    },
    {
      "inputs": [
        {
          "internalType": "address",
          "name": "proofInAddress",
          "type": "address"
        }
      ],
      "name": "authorizeProofIn",
      "outputs": [],
      "stateMutability": "nonpayable",
      "type": "function"
    },
    {
      "inputs": [
        {
          "internalType": "uint256",
          "name": "tokenId",
          "type": "uint256"
        },
        {
          "internalType": "address",
          "name": "tenant",
          "type": "address"
        },
        {
          "internalType": "address",
          "name": "landlord",
          "type": "address"
        }
      ],
      "name": "deposit",
      "outputs": [],
      "stateMutability": "payable",
      "type": "function"
    },
    {
      "inputs": [
        {
          "internalType": "uint256",
          "name": "",
          "type": "uint256"
        }
      ],
      "name": "deposits",
      "outputs": [
        {
          "internalType": "uint256",
          "name": "amount",
          "type": "uint256"
        },
        {
          "internalType": "bool",
          "name": "released",
          "type": "bool"
        },
        {
          "internalType": "address",
          "name": "tenant",
          "type": "address"
        },
        {
          "internalType": "address",
          "name": "landlord",
          "type": "address"
        }
      ],
      "stateMutability": "view",
      "type": "function"
    },
    {
      "inputs": [
        {
          "internalType": "uint256",
          "name": "tokenId",
          "type": "uint256"
        }
      ],
      "name": "getDepositInfo",
      "outputs": [
        {
          "components": [
            {
              "internalType": "uint256",
              "name": "amount",
              "type": "uint256"
            },
            {
              "internalType": "bool",
              "name": "released",
              "type": "bool"
            },
            {
              "internalType": "address",
              "name": "tenant",
              "type": "address"
            },
            {
              "internalType": "address",
              "name": "landlord",
              "type": "address"
            }
          ],
          "internalType": "struct DepositVault.DepositInfo",
          "name": "",
          "type": "tuple"
        }
      ],
      "stateMutability": "view",
      "type": "function"
    },
    {
      "inputs": [],
      "name": "owner",
      "outputs": [
        {
          "internalType": "address",
          "name": "",
          "type": "address"
        }
      ],
      "stateMutability": "view",
      "type": "function"
    },
    {
      "inputs": [
        {
          "internalType": "uint256",
          "name": "tokenId",
          "type": "uint256"
        }
      ],
      "name": "releaseDeposit",
      "outputs": [],
      "stateMutability": "nonpayable",
      "type": "function"
    },
    {
      "inputs": [],
      "name": "renounceOwnership",
      "outputs": [],
      "stateMutability": "nonpayable",
      "type": "function"
    },
    {
      "inputs": [
        {
          "internalType": "address",
          "name": "newOwner",
          "type": "address"
        }
      ],
      "name": "transferOwnership",
      "outputs": [],
      "stateMutability": "nonpayable",
      "type": "function"
    }
  ],
  "bytecode": "0x608060405234801561001057600080fd5b50338061003757604051631e4fbdf760e01b81526000600482015260240160405180910390fd5b61004081610046565b50610096565b600080546001600160a01b038381166001600160a01b0319831681178455604051919092169283917f8be0079c531659141344cd1fd0a4f28419497f9722a3daafe3b4186f6b6457e09190a35050565b610745806100a56000396000f3fe60806040526004361061007b5760003560e01c80638da5cb5b1161004e5780638da5cb5b146101a7578063a0f109c5146101cf578063b02c43d0146101ef578063f2fde38b1461027057600080fd5b80632e2d2984146100805780635328c2bf146100955780635512351e14610172578063715018a614610192575b600080fd5b61009361008e366004610698565b610290565b005b3480156100a157600080fd5b5061012b6100b03660046106d4565b604080516080810182526000808252602082018190529181018290526060810191909152506000908152600160208181526040928390208351608081018552815481529281015460ff81161515928401929092526101009091046001600160a01b039081169383019390935260020154909116606082015290565b6040805182518152602080840151151590820152828201516001600160a01b0390811692820192909252606092830151909116918101919091526080015b60405180910390f35b34801561017e57600080fd5b5061009361018d3660046106ed565b61045e565b34801561019e57600080fd5b50610093610472565b3480156101b357600080fd5b506000546040516001600160a01b039091168152602001610169565b3480156101db57600080fd5b506100936101ea3660046106d4565b610486565b3480156101fb57600080fd5b5061024161020a3660046106d4565b600160208190526000918252604090912080549181015460029091015460ff8216916001600160a01b036101009091048116911684565b6040805194855292151560208501526001600160a01b0391821692840192909252166060820152608001610169565b34801561027c57600080fd5b5061009361028b3660046106ed565b6105c4565b600034116102e55760405162461bcd60e51b815260206004820152601e60248201527f4465706f736974206d7573742062652067726561746572207468616e2030000060448201526064015b60405180910390fd5b6000838152600160205260409020541561033a5760405162461bcd60e51b81526020600482015260166024820152754465706f73697420616c72656164792065786973747360501b60448201526064016102dc565b6001600160a01b0382166103895760405162461bcd60e51b8152602060048201526016602482015275496e76616c69642074656e616e74206164647265737360501b60448201526064016102dc565b6040805160808101825234808252600060208084018281526001600160a01b03888116868801818152898316606089019081528c87526001808752968a9020985189559351958801805491516001600160a81b0319909216961515610100600160a81b0319169690961761010091841691909102179094559051600290950180546001600160a01b031916959091169490941790935583519182529181019190915284917fd3bed23c3dcd8281dc4d066db4dcab982477b389583679f17c2492b1b8001d7d91015b60405180910390a2505050565b6104666105ff565b61046f816105c4565b50565b61047a6105ff565b610484600061062c565b565b61048e6105ff565b600081815260016020526040902080546104de5760405162461bcd60e51b8152602060048201526011602482015270139bc819195c1bdcda5d081cdd1bdc9959607a1b60448201526064016102dc565b600181015460ff16156105265760405162461bcd60e51b815260206004820152601060248201526f105b1c9958591e481c995b19585cd95960821b60448201526064016102dc565b80546001808301805460ff19169091179081905560008084556040516101009092046001600160a01b0316916108fc84150291849190818181858888f19350505050158015610579573d6000803e3d6000fd5b506001820154604080518381526101009092046001600160a01b0316602083015284917f846df1dbce22cac5e1c873b7785204e7586ac0be75d9f1b560afb04649d1091c9101610451565b6105cc6105ff565b6001600160a01b0381166105f657604051631e4fbdf760e01b8152600060048201526024016102dc565b61046f8161062c565b6000546001600160a01b031633146104845760405163118cdaa760e01b81523360048201526024016102dc565b600080546001600160a01b038381166001600160a01b0319831681178455604051919092169283917f8be0079c531659141344cd1fd0a4f28419497f9722a3daafe3b4186f6b6457e09190a35050565b80356001600160a01b038116811461069357600080fd5b919050565b6000806000606084860312156106ad57600080fd5b833592506106bd6020850161067c565b91506106cb6040850161067c565b90509250925092565b6000602082840312156106e657600080fd5b5035919050565b6000602082840312156106ff57600080fd5b6107088261067c565b939250505056fea26469706673582212203b4b17f4cefecd8dd3d6804b9ccd4ab3f9350192b500469ca29a7eec5640f9a064736f6c63430008140033",
  "linkReferences": {},
  "deployedLinkReferences": {}
}